{
  "contractName": "CertificateManagement",
  "abi": [
    {
      "inputs": [],
      "stateMutability": "nonpayable",
      "type": "constructor"
    },
    {
      "inputs": [
        {
          "internalType": "uint256",
          "name": "",
          "type": "uint256"
        }
      ],
      "name": "certificates",
      "outputs": [
        {
          "internalType": "uint256",
          "name": "id",
          "type": "uint256"
        },
        {
          "internalType": "address",
          "name": "carrier",
          "type": "address"
        },
        {
          "internalType": "address",
          "name": "recipient",
          "type": "address"
        },
        {
          "internalType": "address",
          "name": "broker",
          "type": "address"
        },
        {
          "internalType": "uint256",
          "name": "changesCount",
          "type": "uint256"
        },
        {
          "internalType": "string",
          "name": "data",
          "type": "string"
        },
        {
          "internalType": "bool",
          "name": "isFinalized",
          "type": "bool"
        },
        {
          "internalType": "bool",
          "name": "isActive",
          "type": "bool"
        },
        {
          "internalType": "uint256",
          "name": "manufacturingDate",
          "type": "uint256"
        },
        {
          "internalType": "uint256",
          "name": "expiryDate",
          "type": "uint256"
        }
      ],
      "stateMutability": "view",
      "type": "function",
      "constant": true
    },
    {
      "inputs": [
        {
          "internalType": "uint256",
          "name": "",
          "type": "uint256"
        }
      ],
      "name": "expireCertificates",
      "outputs": [
        {
          "internalType": "address",
          "name": "",
          "type": "address"
        }
      ],
      "stateMutability": "view",
      "type": "function",
      "constant": true
    },
    {
      "inputs": [],
      "name": "nextCertificateId",
      "outputs": [
        {
          "internalType": "uint256",
          "name": "",
          "type": "uint256"
        }
      ],
      "stateMutability": "view",
      "type": "function",
      "constant": true
    },
    {
      "inputs": [
        {
          "internalType": "uint256",
          "name": "",
          "type": "uint256"
        },
        {
          "internalType": "uint256",
          "name": "",
          "type": "uint256"
        }
      ],
      "name": "owners",
      "outputs": [
        {
          "internalType": "address",
          "name": "",
          "type": "address"
        }
      ],
      "stateMutability": "view",
      "type": "function",
      "constant": true
    },
    {
      "inputs": [
        {
          "internalType": "address",
          "name": "",
          "type": "address"
        }
      ],
      "name": "roles",
      "outputs": [
        {
          "internalType": "string",
          "name": "",
          "type": "string"
        }
      ],
      "stateMutability": "view",
      "type": "function",
      "constant": true
    },
    {
      "inputs": [],
      "name": "tempCount",
      "outputs": [
        {
          "internalType": "uint256",
          "name": "",
          "type": "uint256"
        }
      ],
      "stateMutability": "view",
      "type": "function",
      "constant": true
    },
    {
      "inputs": [
        {
          "internalType": "address",
          "name": "_owner",
          "type": "address"
        },
        {
          "internalType": "address",
          "name": "_broker",
          "type": "address"
        },
        {
          "internalType": "string",
          "name": "_data",
          "type": "string"
        },
        {
          "internalType": "uint256",
          "name": "_manufacturingDate",
          "type": "uint256"
        },
        {
          "internalType": "uint256",
          "name": "_expiryDate",
          "type": "uint256"
        }
      ],
      "name": "createCertificate",
      "outputs": [],
      "stateMutability": "payable",
      "type": "function",
      "payable": true
    },
    {
      "inputs": [
        {
          "internalType": "uint256",
          "name": "_id",
          "type": "uint256"
        },
        {
          "internalType": "uint256",
          "name": "_fieldId",
          "type": "uint256"
        },
        {
          "internalType": "string",
          "name": "_updatedData",
          "type": "string"
        },
        {
          "internalType": "address",
          "name": "_nominee",
          "type": "address"
        }
      ],
      "name": "requestChanges",
      "outputs": [],
      "stateMutability": "nonpayable",
      "type": "function"
    },
    {
      "inputs": [
        {
          "internalType": "uint256",
          "name": "_id",
          "type": "uint256"
        },
        {
          "internalType": "uint256",
          "name": "_changeId",
          "type": "uint256"
        }
      ],
      "name": "rejectChanges",
      "outputs": [],
      "stateMutability": "nonpayable",
      "type": "function"
    },
    {
      "inputs": [
        {
          "internalType": "uint256",
          "name": "_id",
          "type": "uint256"
        },
        {
          "internalType": "uint256",
          "name": "_changeId",
          "type": "uint256"
        },
        {
          "internalType": "address",
          "name": "_owner",
          "type": "address"
        }
      ],
      "name": "approveChangesByOwner",
      "outputs": [],
      "stateMutability": "nonpayable",
      "type": "function"
    },
    {
      "inputs": [
        {
          "internalType": "uint256",
          "name": "_id",
          "type": "uint256"
        },
        {
          "internalType": "uint256",
          "name": "_changeId",
          "type": "uint256"
        },
        {
          "internalType": "address",
          "name": "_broker",
          "type": "address"
        }
      ],
      "name": "approveChangesByBroker",
      "outputs": [],
      "stateMutability": "nonpayable",
      "type": "function"
    },
    {
      "inputs": [
        {
          "internalType": "uint256",
          "name": "_id",
          "type": "uint256"
        },
        {
          "internalType": "uint256",
          "name": "_changeId",
          "type": "uint256"
        },
        {
          "internalType": "address",
          "name": "industry",
          "type": "address"
        }
      ],
      "name": "approveChangesByIndustry",
      "outputs": [],
      "stateMutability": "nonpayable",
      "type": "function"
    },
    {
      "inputs": [
        {
          "internalType": "uint256",
          "name": "_id",
          "type": "uint256"
        },
        {
          "internalType": "address",
          "name": "_newOwner",
          "type": "address"
        },
        {
          "internalType": "address",
          "name": "_current",
          "type": "address"
        }
      ],
      "name": "transferOwnership",
      "outputs": [],
      "stateMutability": "nonpayable",
      "type": "function"
    },
    {
      "inputs": [
        {
          "internalType": "uint256",
          "name": "_id",
          "type": "uint256"
        },
        {
          "internalType": "address",
          "name": "_nominee",
          "type": "address"
        },
        {
          "internalType": "address",
          "name": "_owner",
          "type": "address"
        }
      ],
      "name": "addNominee",
      "outputs": [],
      "stateMutability": "nonpayable",
      "type": "function"
    },
    {
      "inputs": [
        {
          "internalType": "uint256",
          "name": "_id",
          "type": "uint256"
        },
        {
          "internalType": "address",
          "name": "_nominee",
          "type": "address"
        },
        {
          "internalType": "address",
          "name": "_owner",
          "type": "address"
        }
      ],
      "name": "removeNominee",
      "outputs": [],
      "stateMutability": "nonpayable",
      "type": "function"
    },
    {
      "inputs": [
        {
          "internalType": "uint256",
          "name": "_id",
          "type": "uint256"
        }
      ],
      "name": "getCertificateDetails",
      "outputs": [
        {
          "internalType": "address",
          "name": "",
          "type": "address"
        },
        {
          "internalType": "address",
          "name": "",
          "type": "address"
        },
        {
          "internalType": "address",
          "name": "",
          "type": "address"
        },
        {
          "internalType": "uint256",
          "name": "",
          "type": "uint256"
        },
        {
          "internalType": "string",
          "name": "",
          "type": "string"
        },
        {
          "internalType": "bool",
          "name": "",
          "type": "bool"
        },
        {
          "internalType": "bool",
          "name": "",
          "type": "bool"
        },
        {
          "internalType": "uint256",
          "name": "",
          "type": "uint256"
        },
        {
          "internalType": "uint256",
          "name": "",
          "type": "uint256"
        }
      ],
      "stateMutability": "view",
      "type": "function",
      "constant": true
    },
    {
      "inputs": [
        {
          "internalType": "uint256",
          "name": "_id",
          "type": "uint256"
        },
        {
          "internalType": "address",
          "name": "_address",
          "type": "address"
        }
      ],
      "name": "deleteRequest",
      "outputs": [],
      "stateMutability": "nonpayable",
      "type": "function"
    },
    {
      "inputs": [
        {
          "internalType": "uint256",
          "name": "_id",
          "type": "uint256"
        },
        {
          "internalType": "address",
          "name": "_industry",
          "type": "address"
        }
      ],
      "name": "deleteCertificate",
      "outputs": [],
      "stateMutability": "nonpayable",
      "type": "function"
    },
    {
      "inputs": [
        {
          "internalType": "uint256",
          "name": "_id",
          "type": "uint256"
        }
      ],
      "name": "isDeleteRequest",
      "outputs": [
        {
          "internalType": "address",
          "name": "",
          "type": "address"
        }
      ],
      "stateMutability": "view",
      "type": "function",
      "constant": true
    },
    {
      "inputs": [
        {
          "internalType": "uint256",
          "name": "_id",
          "type": "uint256"
        },
        {
          "internalType": "address",
          "name": "_address",
          "type": "address"
        }
      ],
      "name": "isNominee",
      "outputs": [
        {
          "internalType": "bool",
          "name": "",
          "type": "bool"
        }
      ],
      "stateMutability": "view",
      "type": "function",
      "constant": true
    },
    {
      "inputs": [
        {
          "internalType": "address",
          "name": "_address",
          "type": "address"
        }
      ],
      "name": "hasRole",
      "outputs": [
        {
          "internalType": "string",
          "name": "",
          "type": "string"
        }
      ],
      "stateMutability": "view",
      "type": "function",
      "constant": true
    },
    {
      "inputs": [
        {
          "internalType": "address",
          "name": "_address",
          "type": "address"
        },
        {
          "internalType": "string",
          "name": "role",
          "type": "string"
        }
      ],
      "name": "updateRole",
      "outputs": [],
      "stateMutability": "nonpayable",
      "type": "function"
    },
    {
      "inputs": [],
      "name": "getTempCount",
      "outputs": [
        {
          "internalType": "uint256",
          "name": "",
          "type": "uint256"
        }
      ],
      "stateMutability": "view",
      "type": "function",
      "constant": true
    },
    {
      "inputs": [],
      "name": "setTempCount",
      "outputs": [],
      "stateMutability": "payable",
      "type": "function",
      "payable": true
    }
  ],
  "bytecode": "0x60806040527328c4ece44829584941e5db3d6f2ccb304b173a78600460006101000a81548173ffffffffffffffffffffffffffffffffffffffff021916908373ffffffffffffffffffffffffffffffffffffffff16021790555060006006553480156200006b57600080fd5b506040518060400160405280600881526020017f696e64757374727900000000000000000000000000000000000000000000000081525060036000600460009054906101000a900473ffffffffffffffffffffffffffffffffffffffff1673ffffffffffffffffffffffffffffffffffffffff1673ffffffffffffffffffffffffffffffffffffffff1681526020019081526020016000209080519060200190620001189291906200011f565b5062000233565b8280546200012d90620001fe565b90600052602060002090601f0160209004810192826200015157600085556200019d565b82601f106200016c57805160ff19168380011785556200019d565b828001600101855582156200019d579182015b828111156200019c5782518255916020019190600101906200017f565b5b509050620001ac9190620001b0565b5090565b5b80821115620001cb576000816000905550600101620001b1565b5090565b7f4e487b7100000000000000000000000000000000000000000000000000000000600052602260045260246000fd5b600060028204905060018216806200021757607f821691505b6020821081036200022d576200022c620001cf565b5b50919050565b613ca680620002436000396000f3fe60806040526004361061014b5760003560e01c8063952388c9116100b6578063c0d27b351161006f578063c0d27b35146104c4578063d3b38e02146104ef578063e422e1011461052c578063e69884f414610536578063e6c523d91461055f578063f609c8db1461058a5761014b565b8063952388c91461039c5780639720c1f7146103c557806399374642146103ee578063a0bdb0031461042b578063a901fe5e14610456578063ae788b791461049b5761014b565b80635c5cf696116101085780635c5cf69614610261578063663b3e221461028a578063775c6f40146102d05780637d60af91146102f95780637ef09bca146103365780637f6aa5bf146103735761014b565b80631dd6e60d1461015057806320380638146101795780632a38c3b3146101b65780633194a648146101df57806333764f531461020857806334c6fcce14610245575b600080fd5b34801561015c57600080fd5b50610177600480360381019061017291906129c6565b6105b3565b005b34801561018557600080fd5b506101a0600480360381019061019b9190612a19565b610774565b6040516101ad9190612a55565b60405180910390f35b3480156101c257600080fd5b506101dd60048036038101906101d89190612bb6565b6107a7565b005b3480156101eb57600080fd5b5061020660048036038101906102019190612c39565b610a08565b005b34801561021457600080fd5b5061022f600480360381019061022a9190612c39565b610b8d565b60405161023c9190612a55565b60405180910390f35b61025f600480360381019061025a9190612c79565b610bdb565b005b34801561026d57600080fd5b5061028860048036038101906102839190612d10565b6110ad565b005b34801561029657600080fd5b506102b160048036038101906102ac9190612a19565b61132d565b6040516102c79a99989796959493929190612e02565b60405180910390f35b3480156102dc57600080fd5b506102f760048036038101906102f29190612ea5565b611483565b005b34801561030557600080fd5b50610320600480360381019061031b9190612d10565b6114db565b60405161032d9190612f01565b60405180910390f35b34801561034257600080fd5b5061035d60048036038101906103589190612f1c565b61158a565b60405161036a9190612f49565b60405180910390f35b34801561037f57600080fd5b5061039a60048036038101906103959190612f6b565b61165b565b005b3480156103a857600080fd5b506103c360048036038101906103be9190612f6b565b6119c9565b005b3480156103d157600080fd5b506103ec60048036038101906103e79190612f6b565b611daa565b005b3480156103fa57600080fd5b5061041560048036038101906104109190612f1c565b611f48565b6040516104229190612f49565b60405180910390f35b34801561043757600080fd5b50610440611fe8565b60405161044d9190612fbe565b60405180910390f35b34801561046257600080fd5b5061047d60048036038101906104789190612a19565b611fee565b60405161049299989796959493929190612fd9565b60405180910390f35b3480156104a757600080fd5b506104c260048036038101906104bd91906129c6565b6121a9565b005b3480156104d057600080fd5b506104d96123f3565b6040516104e69190612fbe565b60405180910390f35b3480156104fb57600080fd5b5061051660048036038101906105119190612a19565b6123f9565b6040516105239190612a55565b60405180910390f35b610534612479565b005b34801561054257600080fd5b5061055d60048036038101906105589190612d10565b612490565b005b34801561056b57600080fd5b50610574612623565b6040516105819190612fbe565b60405180910390f35b34801561059657600080fd5b506105b160048036038101906105ac91906129c6565b61262d565b005b60055483106105f7576040517f08c379a00000000000000000000000000000000000000000000000000000000081526004016105ee906130b9565b60405180910390fd5b60006002600085815260200190815260200160002090508060080160019054906101000a900460ff1661065f576040517f08c379a000000000000000000000000000000000000000000000000000000000815260040161065690613125565b60405180910390fd5b8060030160009054906101000a900473ffffffffffffffffffffffffffffffffffffffff1673ffffffffffffffffffffffffffffffffffffffff168273ffffffffffffffffffffffffffffffffffffffff16146106f1576040517f08c379a00000000000000000000000000000000000000000000000000000000081526004016106e8906131b7565b60405180910390fd5b80600601548310610737576040517f08c379a000000000000000000000000000000000000000000000000000000000815260040161072e90613223565b60405180910390fd5b6000816005016000858152602001908152602001600020905060018160040160016101000a81548160ff0219169083151502179055505050505050565b60006020528060005260406000206000915054906101000a900473ffffffffffffffffffffffffffffffffffffffff1681565b60055484106107eb576040517f08c379a00000000000000000000000000000000000000000000000000000000081526004016107e2906130b9565b60405180910390fd5b60006002600086815260200190815260200160002090508060080160019054906101000a900460ff16610853576040517f08c379a000000000000000000000000000000000000000000000000000000000815260040161084a90613125565b60405180910390fd5b8060040160008373ffffffffffffffffffffffffffffffffffffffff1673ffffffffffffffffffffffffffffffffffffffff16815260200190815260200160002060009054906101000a900460ff166108e1576040517f08c379a00000000000000000000000000000000000000000000000000000000081526004016108d89061328f565b60405180910390fd5b600081600501600083600601548152602001908152602001600020905081600601548160000181905550848160010181905550828160020160006101000a81548173ffffffffffffffffffffffffffffffffffffffff021916908373ffffffffffffffffffffffffffffffffffffffff1602179055508381600301908051906020019061096f9291906127ee565b5060008160040160006101000a81548160ff02191690831515021790555060008160040160016101000a81548160ff02191690831515021790555060008160040160026101000a81548160ff02191690831515021790555060008160040160036101000a81548160ff02191690831515021790555060018260060160008282546109f991906132de565b92505081905550505050505050565b6005548210610a4c576040517f08c379a0000000000000000000000000000000000000000000000000000000008152600401610a43906130b9565b60405180910390fd5b60006002600084815260200190815260200160002090508060080160019054906101000a900460ff16610ab4576040517f08c379a0000000000000000000000000000000000000000000000000000000008152600401610aab90613125565b60405180910390fd5b80600601548210610afa576040517f08c379a0000000000000000000000000000000000000000000000000000000008152600401610af190613223565b60405180910390fd5b6000816005016000848152602001908152602001600020905060008160040160006101000a81548160ff02191690831515021790555060008160040160016101000a81548160ff02191690831515021790555060008160040160026101000a81548160ff02191690831515021790555060018160040160036101000a81548160ff02191690831515021790555050505050565b60016020528160005260406000208181548110610ba957600080fd5b906000526020600020016000915091509054906101000a900473ffffffffffffffffffffffffffffffffffffffff1681565b604051602001610bea9061338b565b60405160208183030381529060405280519060200120600360008673ffffffffffffffffffffffffffffffffffffffff1673ffffffffffffffffffffffffffffffffffffffff168152602001908152602001600020604051602001610c4f9190613494565b6040516020818303038152906040528051906020012014610ca5576040517f08c379a0000000000000000000000000000000000000000000000000000000008152600401610c9c906134f7565b60405180910390fd5b604051602001610cb490613563565b60405160208183030381529060405280519060200120600360008773ffffffffffffffffffffffffffffffffffffffff1673ffffffffffffffffffffffffffffffffffffffff168152602001908152602001600020604051602001610d199190613494565b6040516020818303038152906040528051906020012014610d6f576040517f08c379a0000000000000000000000000000000000000000000000000000000008152600401610d66906135c4565b60405180910390fd5b600060055490506000600260008381526020019081526020016000209050818160000181905550600460009054906101000a900473ffffffffffffffffffffffffffffffffffffffff168160010160006101000a81548173ffffffffffffffffffffffffffffffffffffffff021916908373ffffffffffffffffffffffffffffffffffffffff160217905550868160020160006101000a81548173ffffffffffffffffffffffffffffffffffffffff021916908373ffffffffffffffffffffffffffffffffffffffff160217905550858160030160006101000a81548173ffffffffffffffffffffffffffffffffffffffff021916908373ffffffffffffffffffffffffffffffffffffffff1602179055506001816004016000600460009054906101000a900473ffffffffffffffffffffffffffffffffffffffff1673ffffffffffffffffffffffffffffffffffffffff1673ffffffffffffffffffffffffffffffffffffffff16815260200190815260200160002060006101000a81548160ff02191690831515021790555060018160040160008973ffffffffffffffffffffffffffffffffffffffff1673ffffffffffffffffffffffffffffffffffffffff16815260200190815260200160002060006101000a81548160ff02191690831515021790555060018160040160008873ffffffffffffffffffffffffffffffffffffffff1673ffffffffffffffffffffffffffffffffffffffff16815260200190815260200160002060006101000a81548160ff02191690831515021790555084816007019080519060200190610fc99291906127ee565b5060018160080160006101000a81548160ff02191690831515021790555060018160080160016101000a81548160ff0219169083151502179055508381600901819055508281600a018190555060016000838152602001908152602001600020879080600181540180825580915050600190039060005260206000200160009091909190916101000a81548173ffffffffffffffffffffffffffffffffffffffff021916908373ffffffffffffffffffffffffffffffffffffffff16021790555060016005600082825461109d91906132de565b9250508190555050505050505050565b60055482106110f1576040517f08c379a00000000000000000000000000000000000000000000000000000000081526004016110e8906130b9565b60405180910390fd5b60006002600084815260200190815260200160002090508060080160019054906101000a900460ff16611159576040517f08c379a000000000000000000000000000000000000000000000000000000000815260040161115090613125565b60405180910390fd5b600080600085815260200190815260200160002060009054906101000a900473ffffffffffffffffffffffffffffffffffffffff1690508160030160009054906101000a900473ffffffffffffffffffffffffffffffffffffffff1673ffffffffffffffffffffffffffffffffffffffff168173ffffffffffffffffffffffffffffffffffffffff16148061123d57508160020160009054906101000a900473ffffffffffffffffffffffffffffffffffffffff1673ffffffffffffffffffffffffffffffffffffffff168173ffffffffffffffffffffffffffffffffffffffff16145b8061129757508160010160009054906101000a900473ffffffffffffffffffffffffffffffffffffffff1673ffffffffffffffffffffffffffffffffffffffff168173ffffffffffffffffffffffffffffffffffffffff16145b6112d6576040517f08c379a00000000000000000000000000000000000000000000000000000000081526004016112cd90613656565b60405180910390fd5b8260008086815260200190815260200160002060006101000a81548173ffffffffffffffffffffffffffffffffffffffff021916908373ffffffffffffffffffffffffffffffffffffffff16021790555050505050565b60026020528060005260406000206000915090508060000154908060010160009054906101000a900473ffffffffffffffffffffffffffffffffffffffff16908060020160009054906101000a900473ffffffffffffffffffffffffffffffffffffffff16908060030160009054906101000a900473ffffffffffffffffffffffffffffffffffffffff16908060060154908060070180546113ce906133cf565b80601f01602080910402602001604051908101604052809291908181526020018280546113fa906133cf565b80156114475780601f1061141c57610100808354040283529160200191611447565b820191906000526020600020905b81548152906001019060200180831161142a57829003601f168201915b5050505050908060080160009054906101000a900460ff16908060080160019054906101000a900460ff169080600901549080600a015490508a565b80600360008473ffffffffffffffffffffffffffffffffffffffff1673ffffffffffffffffffffffffffffffffffffffff16815260200190815260200160002090805190602001906114d69291906127ee565b505050565b60006005548310611521576040517f08c379a0000000000000000000000000000000000000000000000000000000008152600401611518906130b9565b60405180910390fd5b6002600084815260200190815260200160002060040160008373ffffffffffffffffffffffffffffffffffffffff1673ffffffffffffffffffffffffffffffffffffffff16815260200190815260200160002060009054906101000a900460ff16905092915050565b6060600360008373ffffffffffffffffffffffffffffffffffffffff1673ffffffffffffffffffffffffffffffffffffffff16815260200190815260200160002080546115d6906133cf565b80601f0160208091040260200160405190810160405280929190818152602001828054611602906133cf565b801561164f5780601f106116245761010080835404028352916020019161164f565b820191906000526020600020905b81548152906001019060200180831161163257829003601f168201915b50505050509050919050565b600554831061169f576040517f08c379a0000000000000000000000000000000000000000000000000000000008152600401611696906130b9565b60405180910390fd5b60006002600085815260200190815260200160002090508060080160019054906101000a900460ff16611707576040517f08c379a00000000000000000000000000000000000000000000000000000000081526004016116fe90613125565b60405180910390fd5b8173ffffffffffffffffffffffffffffffffffffffff168160020160009054906101000a900473ffffffffffffffffffffffffffffffffffffffff1673ffffffffffffffffffffffffffffffffffffffff1614611799576040517f08c379a0000000000000000000000000000000000000000000000000000000008152600401611790906136e8565b60405180910390fd5b8060040160008473ffffffffffffffffffffffffffffffffffffffff1673ffffffffffffffffffffffffffffffffffffffff16815260200190815260200160002060009054906101000a900460ff16611827576040517f08c379a000000000000000000000000000000000000000000000000000000000815260040161181e9061377a565b60405180910390fd5b8060010160009054906101000a900473ffffffffffffffffffffffffffffffffffffffff1673ffffffffffffffffffffffffffffffffffffffff168373ffffffffffffffffffffffffffffffffffffffff16141580156118d757508060030160009054906101000a900473ffffffffffffffffffffffffffffffffffffffff1673ffffffffffffffffffffffffffffffffffffffff168373ffffffffffffffffffffffffffffffffffffffff1614155b801561193357508060020160009054906101000a900473ffffffffffffffffffffffffffffffffffffffff1673ffffffffffffffffffffffffffffffffffffffff168373ffffffffffffffffffffffffffffffffffffffff1614155b611972576040517f08c379a00000000000000000000000000000000000000000000000000000000081526004016119699061380c565b60405180910390fd5b8060040160008473ffffffffffffffffffffffffffffffffffffffff1673ffffffffffffffffffffffffffffffffffffffff16815260200190815260200160002060006101000a81549060ff021916905550505050565b6005548310611a0d576040517f08c379a0000000000000000000000000000000000000000000000000000000008152600401611a04906130b9565b60405180910390fd5b60006002600085815260200190815260200160002090508060080160019054906101000a900460ff16611a75576040517f08c379a0000000000000000000000000000000000000000000000000000000008152600401611a6c90613125565b60405180910390fd5b8060020160009054906101000a900473ffffffffffffffffffffffffffffffffffffffff1673ffffffffffffffffffffffffffffffffffffffff168273ffffffffffffffffffffffffffffffffffffffff1603611b07576040517f08c379a0000000000000000000000000000000000000000000000000000000008152600401611afe9061389e565b60405180910390fd5b8273ffffffffffffffffffffffffffffffffffffffff168273ffffffffffffffffffffffffffffffffffffffff1603611b75576040517f08c379a0000000000000000000000000000000000000000000000000000000008152600401611b6c9061390a565b60405180910390fd5b8060030160009054906101000a900473ffffffffffffffffffffffffffffffffffffffff1673ffffffffffffffffffffffffffffffffffffffff168273ffffffffffffffffffffffffffffffffffffffff1614158015611c2557508060010160009054906101000a900473ffffffffffffffffffffffffffffffffffffffff1673ffffffffffffffffffffffffffffffffffffffff168273ffffffffffffffffffffffffffffffffffffffff1614155b611c64576040517f08c379a0000000000000000000000000000000000000000000000000000000008152600401611c5b9061399c565b60405180910390fd5b828160020160006101000a81548173ffffffffffffffffffffffffffffffffffffffff021916908373ffffffffffffffffffffffffffffffffffffffff1602179055506040518060400160405280600681526020017f636c69656e740000000000000000000000000000000000000000000000000000815250600360008573ffffffffffffffffffffffffffffffffffffffff1673ffffffffffffffffffffffffffffffffffffffff1681526020019081526020016000209080519060200190611d2f9291906127ee565b5060016000858152602001908152602001600020839080600181540180825580915050600190039060005260206000200160009091909190916101000a81548173ffffffffffffffffffffffffffffffffffffffff021916908373ffffffffffffffffffffffffffffffffffffffff16021790555050505050565b6005548310611dee576040517f08c379a0000000000000000000000000000000000000000000000000000000008152600401611de5906130b9565b60405180910390fd5b60006002600085815260200190815260200160002090508060080160019054906101000a900460ff16611e56576040517f08c379a0000000000000000000000000000000000000000000000000000000008152600401611e4d90613125565b60405180910390fd5b8173ffffffffffffffffffffffffffffffffffffffff168160020160009054906101000a900473ffffffffffffffffffffffffffffffffffffffff1673ffffffffffffffffffffffffffffffffffffffff1614611ee8576040517f08c379a0000000000000000000000000000000000000000000000000000000008152600401611edf90613a2e565b60405180910390fd5b60018160040160008573ffffffffffffffffffffffffffffffffffffffff1673ffffffffffffffffffffffffffffffffffffffff16815260200190815260200160002060006101000a81548160ff02191690831515021790555050505050565b60036020528060005260406000206000915090508054611f67906133cf565b80601f0160208091040260200160405190810160405280929190818152602001828054611f93906133cf565b8015611fe05780601f10611fb557610100808354040283529160200191611fe0565b820191906000526020600020905b815481529060010190602001808311611fc357829003601f168201915b505050505081565b60055481565b60008060008060606000806000806005548a10612040576040517f08c379a0000000000000000000000000000000000000000000000000000000008152600401612037906130b9565b60405180910390fd5b6000600260008c815260200190815260200160002090508060010160009054906101000a900473ffffffffffffffffffffffffffffffffffffffff168160020160009054906101000a900473ffffffffffffffffffffffffffffffffffffffff168260030160009054906101000a900473ffffffffffffffffffffffffffffffffffffffff168360060154846007018560080160019054906101000a900460ff168660080160009054906101000a900460ff16876009015488600a0154848054612109906133cf565b80601f0160208091040260200160405190810160405280929190818152602001828054612135906133cf565b80156121825780601f1061215757610100808354040283529160200191612182565b820191906000526020600020905b81548152906001019060200180831161216557829003601f168201915b50505050509450995099509950995099509950995099509950509193959799909294969850565b60055483106121ed576040517f08c379a00000000000000000000000000000000000000000000000000000000081526004016121e4906130b9565b60405180910390fd5b60006002600085815260200190815260200160002090508060080160019054906101000a900460ff16612255576040517f08c379a000000000000000000000000000000000000000000000000000000000815260040161224c90613125565b60405180910390fd5b600460009054906101000a900473ffffffffffffffffffffffffffffffffffffffff1673ffffffffffffffffffffffffffffffffffffffff168273ffffffffffffffffffffffffffffffffffffffff16146122e5576040517f08c379a00000000000000000000000000000000000000000000000000000000081526004016122dc90613a9a565b60405180910390fd5b8060060154831061232b576040517f08c379a000000000000000000000000000000000000000000000000000000000815260040161232290613223565b60405180910390fd5b600081600501600085815260200190815260200160002090508060040160009054906101000a900460ff16801561237057508060040160019054906101000a900460ff165b6123af576040517f08c379a00000000000000000000000000000000000000000000000000000000081526004016123a690613b2c565b60405180910390fd5b60018160040160026101000a81548160ff02191690831515021790555080600301826007019080546123e0906133cf565b6123eb929190612874565b505050505050565b60065481565b6000600554821061243f576040517f08c379a0000000000000000000000000000000000000000000000000000000008152600401612436906130b9565b60405180910390fd5b60008083815260200190815260200160002060009054906101000a900473ffffffffffffffffffffffffffffffffffffffff169050919050565b600160065461248891906132de565b600681905550565b60055482106124d4576040517f08c379a00000000000000000000000000000000000000000000000000000000081526004016124cb906130b9565b60405180910390fd5b60006002600084815260200190815260200160002090508060080160019054906101000a900460ff1661253c576040517f08c379a000000000000000000000000000000000000000000000000000000000815260040161253390613125565b60405180910390fd5b600460009054906101000a900473ffffffffffffffffffffffffffffffffffffffff1673ffffffffffffffffffffffffffffffffffffffff168273ffffffffffffffffffffffffffffffffffffffff16036125cc576040517f08c379a00000000000000000000000000000000000000000000000000000000081526004016125c390613bbe565b60405180910390fd5b60008160080160016101000a81548160ff02191690831515021790555060008084815260200190815260200160002060006101000a81549073ffffffffffffffffffffffffffffffffffffffff0219169055505050565b6000600654905090565b6005548310612671576040517f08c379a0000000000000000000000000000000000000000000000000000000008152600401612668906130b9565b60405180910390fd5b60006002600085815260200190815260200160002090508060080160019054906101000a900460ff166126d9576040517f08c379a00000000000000000000000000000000000000000000000000000000081526004016126d090613125565b60405180910390fd5b8060020160009054906101000a900473ffffffffffffffffffffffffffffffffffffffff1673ffffffffffffffffffffffffffffffffffffffff168273ffffffffffffffffffffffffffffffffffffffff161461276b576040517f08c379a000000000000000000000000000000000000000000000000000000000815260040161276290613c50565b60405180910390fd5b806006015483106127b1576040517f08c379a00000000000000000000000000000000000000000000000000000000081526004016127a890613223565b60405180910390fd5b6000816005016000858152602001908152602001600020905060018160040160006101000a81548160ff0219169083151502179055505050505050565b8280546127fa906133cf565b90600052602060002090601f01602090048101928261281c5760008555612863565b82601f1061283557805160ff1916838001178555612863565b82800160010185558215612863579182015b82811115612862578251825591602001919060010190612847565b5b5090506128709190612901565b5090565b828054612880906133cf565b90600052602060002090601f0160209004810192826128a257600085556128f0565b82601f106128b357805485556128f0565b828001600101855582156128f057600052602060002091601f016020900482015b828111156128ef5782548255916001019190600101906128d4565b5b5090506128fd9190612901565b5090565b5b8082111561291a576000816000905550600101612902565b5090565b6000604051905090565b600080fd5b600080fd5b6000819050919050565b61294581612932565b811461295057600080fd5b50565b6000813590506129628161293c565b92915050565b600073ffffffffffffffffffffffffffffffffffffffff82169050919050565b600061299382612968565b9050919050565b6129a381612988565b81146129ae57600080fd5b50565b6000813590506129c08161299a565b92915050565b6000806000606084860312156129df576129de612928565b5b60006129ed86828701612953565b93505060206129fe86828701612953565b9250506040612a0f868287016129b1565b9150509250925092565b600060208284031215612a2f57612a2e612928565b5b6000612a3d84828501612953565b91505092915050565b612a4f81612988565b82525050565b6000602082019050612a6a6000830184612a46565b92915050565b600080fd5b600080fd5b6000601f19601f8301169050919050565b7f4e487b7100000000000000000000000000000000000000000000000000000000600052604160045260246000fd5b612ac382612a7a565b810181811067ffffffffffffffff82111715612ae257612ae1612a8b565b5b80604052505050565b6000612af561291e565b9050612b018282612aba565b919050565b600067ffffffffffffffff821115612b2157612b20612a8b565b5b612b2a82612a7a565b9050602081019050919050565b82818337600083830152505050565b6000612b59612b5484612b06565b612aeb565b905082815260208101848484011115612b7557612b74612a75565b5b612b80848285612b37565b509392505050565b600082601f830112612b9d57612b9c612a70565b5b8135612bad848260208601612b46565b91505092915050565b60008060008060808587031215612bd057612bcf612928565b5b6000612bde87828801612953565b9450506020612bef87828801612953565b935050604085013567ffffffffffffffff811115612c1057612c0f61292d565b5b612c1c87828801612b88565b9250506060612c2d878288016129b1565b91505092959194509250565b60008060408385031215612c5057612c4f612928565b5b6000612c5e85828601612953565b9250506020612c6f85828601612953565b9150509250929050565b600080600080600060a08688031215612c9557612c94612928565b5b6000612ca3888289016129b1565b9550506020612cb4888289016129b1565b945050604086013567ffffffffffffffff811115612cd557612cd461292d565b5b612ce188828901612b88565b9350506060612cf288828901612953565b9250506080612d0388828901612953565b9150509295509295909350565b60008060408385031215612d2757612d26612928565b5b6000612d3585828601612953565b9250506020612d46858286016129b1565b9150509250929050565b612d5981612932565b82525050565b600081519050919050565b600082825260208201905092915050565b60005b83811015612d99578082015181840152602081019050612d7e565b83811115612da8576000848401525b50505050565b6000612db982612d5f565b612dc38185612d6a565b9350612dd3818560208601612d7b565b612ddc81612a7a565b840191505092915050565b60008115159050919050565b612dfc81612de7565b82525050565b600061014082019050612e18600083018d612d50565b612e25602083018c612a46565b612e32604083018b612a46565b612e3f606083018a612a46565b612e4c6080830189612d50565b81810360a0830152612e5e8188612dae565b9050612e6d60c0830187612df3565b612e7a60e0830186612df3565b612e88610100830185612d50565b612e96610120830184612d50565b9b9a5050505050505050505050565b60008060408385031215612ebc57612ebb612928565b5b6000612eca858286016129b1565b925050602083013567ffffffffffffffff811115612eeb57612eea61292d565b5b612ef785828601612b88565b9150509250929050565b6000602082019050612f166000830184612df3565b92915050565b600060208284031215612f3257612f31612928565b5b6000612f40848285016129b1565b91505092915050565b60006020820190508181036000830152612f638184612dae565b905092915050565b600080600060608486031215612f8457612f83612928565b5b6000612f9286828701612953565b9350506020612fa3868287016129b1565b9250506040612fb4868287016129b1565b9150509250925092565b6000602082019050612fd36000830184612d50565b92915050565b600061012082019050612fef600083018c612a46565b612ffc602083018b612a46565b613009604083018a612a46565b6130166060830189612d50565b81810360808301526130288188612dae565b905061303760a0830187612df3565b61304460c0830186612df3565b61305160e0830185612d50565b61305f610100830184612d50565b9a9950505050505050505050565b7f436572746966696361746520646f6573206e6f74206578697374000000000000600082015250565b60006130a3601a83612d6a565b91506130ae8261306d565b602082019050919050565b600060208201905081810360008301526130d281613096565b9050919050565b7f4365727469666963617465206973206e6f742061637469766500000000000000600082015250565b600061310f601983612d6a565b915061311a826130d9565b602082019050919050565b6000602082019050818103600083015261313e81613102565b9050919050565b7f596f7520617265206e6f74207468652042726f6b657220666f7220746869732060008201527f506f6c6963790000000000000000000000000000000000000000000000000000602082015250565b60006131a1602683612d6a565b91506131ac82613145565b604082019050919050565b600060208201905081810360008301526131d081613194565b9050919050565b7f496e76616c6964206368616e6765204944000000000000000000000000000000600082015250565b600061320d601183612d6a565b9150613218826131d7565b602082019050919050565b6000602082019050818103600083015261323c81613200565b9050919050565b7f596f7520646f6e74206861766520746869732072696768740000000000000000600082015250565b6000613279601883612d6a565b915061328482613243565b602082019050919050565b600060208201905081810360008301526132a88161326c565b9050919050565b7f4e487b7100000000000000000000000000000000000000000000000000000000600052601160045260246000fd5b60006132e982612932565b91506132f483612932565b9250827fffffffffffffffffffffffffffffffffffffffffffffffffffffffffffffffff03821115613329576133286132af565b5b828201905092915050565b600081905092915050565b7f62726f6b65720000000000000000000000000000000000000000000000000000600082015250565b6000613375600683613334565b91506133808261333f565b600682019050919050565b600061339682613368565b9150819050919050565b7f4e487b7100000000000000000000000000000000000000000000000000000000600052602260045260246000fd5b600060028204905060018216806133e757607f821691505b6020821081036133fa576133f96133a0565b5b50919050565b60008190508160005260206000209050919050565b60008154613422816133cf565b61342c8186613334565b9450600182166000811461344757600181146134585761348b565b60ff1983168652818601935061348b565b61346185613400565b60005b8381101561348357815481890152600182019150602081019050613464565b838801955050505b50505092915050565b60006134a08284613415565b915081905092915050565b7f596f7520617265206e6f7420612042726f6b6572000000000000000000000000600082015250565b60006134e1601483612d6a565b91506134ec826134ab565b602082019050919050565b60006020820190508181036000830152613510816134d4565b9050919050565b7f636c69656e740000000000000000000000000000000000000000000000000000600082015250565b600061354d600683613334565b915061355882613517565b600682019050919050565b600061356e82613540565b9150819050919050565b7f4e6f7420612076616c696420436c69656e740000000000000000000000000000600082015250565b60006135ae601283612d6a565b91506135b982613578565b602082019050919050565b600060208201905081810360008301526135dd816135a1565b9050919050565b7f596f752068617665206e6f20726967687420746f206d616b652064656c65746560008201527f2072657175657374000000000000000000000000000000000000000000000000602082015250565b6000613640602883612d6a565b915061364b826135e4565b604082019050919050565b6000602082019050818103600083015261366f81613633565b9050919050565b7f4f6e6c7920746865206d61696e206f776e65722063616e2072656d6f7665206e60008201527f6f6d696e65657300000000000000000000000000000000000000000000000000602082015250565b60006136d2602783612d6a565b91506136dd82613676565b604082019050919050565b60006020820190508181036000830152613701816136c5565b9050919050565b7f5468697320706572736f6e20696e206e6f7420696e206e6f6d696e6565206c6960008201527f7374000000000000000000000000000000000000000000000000000000000000602082015250565b6000613764602283612d6a565b915061376f82613708565b604082019050919050565b6000602082019050818103600083015261379381613757565b9050919050565b7f596f752063616e27742072656d6f7665207468656d2066726f6d20746865206c60008201527f6973740000000000000000000000000000000000000000000000000000000000602082015250565b60006137f6602383612d6a565b91506138018261379a565b604082019050919050565b60006020820190508181036000830152613825816137e9565b9050919050565b7f596f7520617265206e6f74206f776e6572206f6620746869732063657274696660008201527f6963617465000000000000000000000000000000000000000000000000000000602082015250565b6000613888602583612d6a565b91506138938261382c565b604082019050919050565b600060208201905081810360008301526138b78161387b565b9050919050565b7f53616d6520706572736f6e206e6f206368616e67657300000000000000000000600082015250565b60006138f4601683612d6a565b91506138ff826138be565b602082019050919050565b60006020820190508181036000830152613923816138e7565b9050919050565b7f4f6e6c79206f776e65722063616e207472616e73666572206f776e657273686960008201527f7000000000000000000000000000000000000000000000000000000000000000602082015250565b6000613986602183612d6a565b91506139918261392a565b604082019050919050565b600060208201905081810360008301526139b581613979565b9050919050565b7f4f6e6c7920746865206d61696e206f776e65722063616e20616464206e6f6d6960008201527f6e65657300000000000000000000000000000000000000000000000000000000602082015250565b6000613a18602483612d6a565b9150613a23826139bc565b604082019050919050565b60006020820190508181036000830152613a4781613a0b565b9050919050565b7f596f7520617265206e6f742074686520496e6475737472790000000000000000600082015250565b6000613a84601883612d6a565b9150613a8f82613a4e565b602082019050919050565b60006020820190508181036000830152613ab381613a77565b9050919050565b7f596574204e6f7420566572696669656420627920737570706f7274696e67205060008201527f6172746965730000000000000000000000000000000000000000000000000000602082015250565b6000613b16602683612d6a565b9150613b2182613aba565b604082019050919050565b60006020820190508181036000830152613b4581613b09565b9050919050565b7f4f6e6c7920496e6475737472792063616e2064656c657465204365727469666960008201527f6361746573000000000000000000000000000000000000000000000000000000602082015250565b6000613ba8602583612d6a565b9150613bb382613b4c565b604082019050919050565b60006020820190508181036000830152613bd781613b9b565b9050919050565b7f596f7520617265206e6f7420746865204f776e657220666f722074686973205060008201527f6f6c696379000000000000000000000000000000000000000000000000000000602082015250565b6000613c3a602583612d6a565b9150613c4582613bde565b604082019050919050565b60006020820190508181036000830152613c6981613c2d565b905091905056fea2646970667358221220d702c8ac89b42a1f88adf2b07271afde8169271fdebac22ed395b11fc75e068c64736f6c634300080d0033",
  "immutableReferences": {},
  "source": "// SPDX-License-Identifier: MIT\npragma solidity ^0.8.0;\n\ncontract CertificateManagement {\n    struct CertificateCreation {\n        uint256 id;\n        address carrier;\n        address recipient;  // Main owner\n        address broker;  // Main owner\n        mapping(address => bool) nominees;  // Updated to mapping\n        mapping(uint256 => Change) changes; // Map change ID to Change struct\n        uint256 changesCount; // Counter for tracking changes\n        string data;\n        bool isFinalized;\n        bool isActive;\n        uint256 manufacturingDate;\n        uint256 expiryDate;\n    }\n\n    mapping (uint256 => address) public expireCertificates;\n\n    struct Change {\n        uint256 changeId;\n        uint256 fieldID;\n        address initiatorNominee;\n        string updatedData;\n        bool updatedByOwner;\n        bool updatedByBroker;\n        bool updatedByIndustry;\n        bool reject;\n    }\n\n    mapping (uint256 => address[]) public owners;\n\n    mapping(uint256 => CertificateCreation) public certificates;\n\n    mapping(address => string) public roles;\n    \n    address mainIndustry = 0x28C4ecE44829584941E5db3D6F2cCB304B173a78;\n    constructor(){\n        roles[mainIndustry] = \"industry\";\n    }\n\n    uint256 public nextCertificateId;\n    uint256 public tempCount = 0;\n\n    // broker will create the certificate\n    function createCertificate(\n        address _owner,\n        address _broker,\n        string memory _data,\n        uint256 _manufacturingDate,\n        uint256 _expiryDate\n    ) public payable {\n        require(keccak256(abi.encodePacked(roles[_broker])) == keccak256(abi.encodePacked(\"broker\")) , \"You are not a Broker\");\n        require(keccak256(abi.encodePacked(roles[_owner])) == keccak256(abi.encodePacked(\"client\")) , \"Not a valid Client\");\n        uint256 newId = nextCertificateId;\n        CertificateCreation storage newCertificate = certificates[newId];\n        newCertificate.id = newId;\n        newCertificate.carrier = mainIndustry;\n        newCertificate.recipient = _owner;\n        newCertificate.broker = _broker;\n        newCertificate.nominees[mainIndustry] = true;\n        newCertificate.nominees[_owner] = true;\n        newCertificate.nominees[_broker] = true;\n        newCertificate.data = _data;\n        newCertificate.isFinalized = true;\n        newCertificate.isActive = true;\n        newCertificate.manufacturingDate = _manufacturingDate;\n        newCertificate.expiryDate = _expiryDate;\n        \n        owners[newId].push(_owner); \n        \n        nextCertificateId+=1;\n    }\n\n    function requestChanges(uint256 _id, uint256 _fieldId, string memory _updatedData, address _nominee) public {\n        require(_id < nextCertificateId, \"Certificate does not exist\");\n        CertificateCreation storage cert = certificates[_id];\n        require(cert.isActive, \"Certificate is not active\");\n        require(cert.nominees[_nominee], \"You dont have this right\");\n        Change storage newChange = cert.changes[cert.changesCount];\n        newChange.changeId = cert.changesCount;\n        newChange.fieldID = _fieldId;\n        newChange.initiatorNominee = _nominee;\n        newChange.updatedData = _updatedData;\n        newChange.updatedByOwner = false;\n        newChange.updatedByBroker = false;\n        newChange.updatedByIndustry = false;\n        newChange.reject = false;\n        cert.changesCount+=1;\n    }\n\n    function rejectChanges(uint256 _id,uint256 _changeId) public {\n        require(_id < nextCertificateId, \"Certificate does not exist\");\n        CertificateCreation storage cert = certificates[_id];\n        require(cert.isActive, \"Certificate is not active\");\n        require(_changeId < cert.changesCount, \"Invalid change ID\");\n        Change storage change = cert.changes[_changeId];\n        change.updatedByOwner = false;\n        change.updatedByBroker = false;\n        change.updatedByIndustry = false;\n        change.reject = true;\n    }\n\n    function approveChangesByOwner(uint256 _id,uint256 _changeId, address _owner) public {\n        require(_id < nextCertificateId, \"Certificate does not exist\");\n        CertificateCreation storage cert = certificates[_id];\n        require(cert.isActive, \"Certificate is not active\");\n        require(_owner == cert.recipient, \"You are not the Owner for this Policy\");\n        require(_changeId < cert.changesCount, \"Invalid change ID\");\n        Change storage change = cert.changes[_changeId];\n        change.updatedByOwner = true;\n    }\n    \n    function approveChangesByBroker(uint256 _id,uint256 _changeId, address _broker) public {\n        require(_id < nextCertificateId, \"Certificate does not exist\");\n        CertificateCreation storage cert = certificates[_id];\n        require(cert.isActive, \"Certificate is not active\");\n        require(_broker == cert.broker, \"You are not the Broker for this Policy\");\n        require(_changeId < cert.changesCount, \"Invalid change ID\");\n        Change storage change = cert.changes[_changeId];\n        change.updatedByBroker = true;\n    }\n\n    // Function to approve changes to a certificate\n    function approveChangesByIndustry(uint256 _id, uint256 _changeId, address industry) public {\n        require(_id < nextCertificateId, \"Certificate does not exist\");\n        CertificateCreation storage cert = certificates[_id];\n        require(cert.isActive, \"Certificate is not active\");\n        require(industry == mainIndustry, \"You are not the Industry\");\n        // Ensure the change ID is valid\n        require(_changeId < cert.changesCount, \"Invalid change ID\");\n        Change storage change = cert.changes[_changeId];\n        require(change.updatedByOwner && change.updatedByBroker, \"Yet Not Verified by supporting Parties\");\n        // Approve the change\n        change.updatedByIndustry = true;\n        cert.data = change.updatedData;\n    }\n\n    // Function to transfer ownership to another address\n    function transferOwnership(uint256 _id, address _newOwner, address _current) public {\n        require(_id < nextCertificateId, \"Certificate does not exist\");\n        CertificateCreation storage cert = certificates[_id];\n        require(cert.isActive, \"Certificate is not active\");\n        require(_current != cert.recipient, \"You are not owner of this certificate\");\n        require(_current != _newOwner, \"Same person no changes\");\n        require(_current != cert.broker && _current != cert.carrier , \"Only owner can transfer ownership\");\n        // Remove the current owner as the carrier and add the new owner\n        cert.recipient = _newOwner;\n        roles[_newOwner] = \"client\";\n        owners[_id].push(_newOwner); \n\n    }\n\n    // Function to add a nominee\n    function addNominee(uint256 _id, address _nominee, address _owner) public {\n        require(_id < nextCertificateId, \"Certificate does not exist\");\n        CertificateCreation storage cert = certificates[_id];\n        require(cert.isActive, \"Certificate is not active\");\n        require(cert.recipient == _owner, \"Only the main owner can add nominees\");\n        // Add the nominee to the nominees mapping\n        cert.nominees[_nominee] = true;\n    }\n\n    // Function to remove a nominee\n    function removeNominee(uint256 _id, address _nominee, address _owner) public {\n        require(_id < nextCertificateId, \"Certificate does not exist\");\n        CertificateCreation storage cert = certificates[_id];\n        require(cert.isActive, \"Certificate is not active\");\n        require(cert.recipient == _owner, \"Only the main owner can remove nominees\");\n        require(cert.nominees[_nominee], \"This person in not in nominee list\");\n        require(_nominee!=cert.carrier && _nominee!=cert.broker && _nominee!=cert.recipient, \"You can't remove them from the list\");\n        // Remove the nominee from the nominees mapping\n        delete cert.nominees[_nominee];\n    }\n\n    // Function to retrieve certificate details\n    function getCertificateDetails(uint256 _id) public view returns (address, address, address, uint256, string memory, bool, bool, uint256, uint256) {\n        require(_id < nextCertificateId, \"Certificate does not exist\");\n        CertificateCreation storage cert = certificates[_id];\n        return (cert.carrier, cert.recipient, cert.broker, cert.changesCount, cert.data, cert.isActive, cert.isFinalized, cert.manufacturingDate, cert.expiryDate);\n    }\n\n    // Function to make request to delete certificate\n    function deleteRequest(uint256 _id, address _address) public {\n        require(_id < nextCertificateId, \"Certificate does not exist\");\n        CertificateCreation storage cert = certificates[_id];\n        require(cert.isActive, \"Certificate is not active\");\n        address addressRequesting = expireCertificates[_id];\n        require(addressRequesting==cert.broker || addressRequesting==cert.recipient || addressRequesting==cert.carrier, \"You have no right to make delete request\");\n        expireCertificates[_id] = _address;\n    } \n\n    // delete certificate by industry\n    function deleteCertificate(uint256 _id, address _industry) public {\n        require(_id < nextCertificateId, \"Certificate does not exist\");\n        CertificateCreation storage cert = certificates[_id];\n        require(cert.isActive, \"Certificate is not active\");\n        require(_industry != mainIndustry, \"Only Industry can delete Certificates\");\n        cert.isActive = false;\n        delete expireCertificates[_id];\n    }\n\n    function isDeleteRequest(uint256 _id) public view returns (address){\n        require(_id < nextCertificateId, \"Certificate does not exist\");\n        return expireCertificates[_id];\n    }\n\n    // Function to check if an address is a nominee for a certificate\n    function isNominee(uint256 _id, address _address) public view returns (bool) {\n        require(_id < nextCertificateId, \"Certificate does not exist\");\n        return certificates[_id].nominees[_address];\n    }\n\n    function hasRole(address _address) public view returns (string memory) {\n        return roles[_address];\n    }\n\n    function updateRole(address _address, string memory role) public {\n        roles[_address] = role;\n    }\n\n    function getTempCount() public view returns(uint256){\n        return tempCount;\n    }\n\n    function setTempCount() public payable{\n        tempCount = tempCount+1;\n    }\n}",
  "sourcePath": "/home/lucifer/Cert-kausutubh/smart_contract/contracts/CertificateManagement.sol",
  "compiler": {
    "name": "solc",
    "version": "0.8.13+commit.abaa5c0e.Emscripten.clang"
  },
  "schemaVersion": "3.4.16",
  "updatedAt": "2023-12-29T00:23:25.429Z",
  "networkType": "ethereum",
  "devdoc": {
    "kind": "dev",
    "methods": {},
    "version": 1
  },
  "userdoc": {
    "kind": "user",
    "methods": {},
    "version": 1
  }
}