{
  "contractName": "CertificateManagement",
  "abi": [
    {
      "inputs": [
        {
          "internalType": "uint256",
          "name": "",
          "type": "uint256"
        }
      ],
      "name": "certificates",
      "outputs": [
        {
          "internalType": "uint256",
          "name": "id",
          "type": "uint256"
        },
        {
          "internalType": "address",
          "name": "carrier",
          "type": "address"
        },
        {
          "internalType": "address",
          "name": "recipient",
          "type": "address"
        },
        {
          "internalType": "uint256",
          "name": "changesCount",
          "type": "uint256"
        },
        {
          "internalType": "string",
          "name": "data",
          "type": "string"
        },
        {
          "internalType": "bool",
          "name": "isFinalized",
          "type": "bool"
        },
        {
          "internalType": "uint256",
          "name": "manufacturingDate",
          "type": "uint256"
        },
        {
          "internalType": "uint256",
          "name": "expiryDate",
          "type": "uint256"
        }
      ],
      "stateMutability": "view",
      "type": "function",
      "constant": true
    },
    {
      "inputs": [
        {
          "internalType": "uint256",
          "name": "",
          "type": "uint256"
        },
        {
          "internalType": "address",
          "name": "",
          "type": "address"
        }
      ],
      "name": "collaborators",
      "outputs": [
        {
          "internalType": "bool",
          "name": "hasViewAccess",
          "type": "bool"
        },
        {
          "internalType": "bool",
          "name": "hasOwnership",
          "type": "bool"
        }
      ],
      "stateMutability": "view",
      "type": "function",
      "constant": true
    },
    {
      "inputs": [],
      "name": "nextCertificateId",
      "outputs": [
        {
          "internalType": "uint256",
          "name": "",
          "type": "uint256"
        }
      ],
      "stateMutability": "view",
      "type": "function",
      "constant": true
    },
    {
      "inputs": [
        {
          "internalType": "address",
          "name": "_recipient",
          "type": "address"
        },
        {
          "internalType": "string",
          "name": "_data",
          "type": "string"
        },
        {
          "internalType": "uint256",
          "name": "_manufacturingDate",
          "type": "uint256"
        },
        {
          "internalType": "uint256",
          "name": "_expiryDate",
          "type": "uint256"
        }
      ],
      "name": "createCertificate",
      "outputs": [],
      "stateMutability": "nonpayable",
      "type": "function"
    },
    {
      "inputs": [
        {
          "internalType": "uint256",
          "name": "_id",
          "type": "uint256"
        },
        {
          "internalType": "string",
          "name": "_updatedData",
          "type": "string"
        }
      ],
      "name": "requestChanges",
      "outputs": [],
      "stateMutability": "nonpayable",
      "type": "function"
    },
    {
      "inputs": [
        {
          "internalType": "uint256",
          "name": "_id",
          "type": "uint256"
        },
        {
          "internalType": "uint256",
          "name": "_changeId",
          "type": "uint256"
        }
      ],
      "name": "approveChanges",
      "outputs": [],
      "stateMutability": "nonpayable",
      "type": "function"
    },
    {
      "inputs": [
        {
          "internalType": "uint256",
          "name": "_id",
          "type": "uint256"
        },
        {
          "internalType": "address",
          "name": "_newOwner",
          "type": "address"
        }
      ],
      "name": "transferOwnership",
      "outputs": [],
      "stateMutability": "nonpayable",
      "type": "function"
    },
    {
      "inputs": [
        {
          "internalType": "uint256",
          "name": "_id",
          "type": "uint256"
        },
        {
          "internalType": "address",
          "name": "_collaborator",
          "type": "address"
        }
      ],
      "name": "addCollaborator",
      "outputs": [],
      "stateMutability": "nonpayable",
      "type": "function"
    },
    {
      "inputs": [
        {
          "internalType": "uint256",
          "name": "_id",
          "type": "uint256"
        },
        {
          "internalType": "address",
          "name": "_collaborator",
          "type": "address"
        }
      ],
      "name": "removeCollaborator",
      "outputs": [],
      "stateMutability": "nonpayable",
      "type": "function"
    },
    {
      "inputs": [
        {
          "internalType": "uint256",
          "name": "_id",
          "type": "uint256"
        },
        {
          "internalType": "address",
          "name": "_nominee",
          "type": "address"
        }
      ],
      "name": "addNominee",
      "outputs": [],
      "stateMutability": "nonpayable",
      "type": "function"
    },
    {
      "inputs": [
        {
          "internalType": "uint256",
          "name": "_id",
          "type": "uint256"
        },
        {
          "internalType": "address",
          "name": "_nominee",
          "type": "address"
        }
      ],
      "name": "removeNominee",
      "outputs": [],
      "stateMutability": "nonpayable",
      "type": "function"
    },
    {
      "inputs": [
        {
          "internalType": "uint256",
          "name": "_id",
          "type": "uint256"
        }
      ],
      "name": "getCertificate",
      "outputs": [
        {
          "internalType": "address",
          "name": "",
          "type": "address"
        },
        {
          "internalType": "string",
          "name": "",
          "type": "string"
        },
        {
          "internalType": "bool",
          "name": "",
          "type": "bool"
        }
      ],
      "stateMutability": "view",
      "type": "function",
      "constant": true
    },
    {
      "inputs": [
        {
          "internalType": "uint256",
          "name": "_id",
          "type": "uint256"
        },
        {
          "internalType": "address",
          "name": "_collaborator",
          "type": "address"
        }
      ],
      "name": "getCollaboratorDetails",
      "outputs": [
        {
          "internalType": "bool",
          "name": "",
          "type": "bool"
        },
        {
          "internalType": "bool",
          "name": "",
          "type": "bool"
        }
      ],
      "stateMutability": "view",
      "type": "function",
      "constant": true
    },
    {
      "inputs": [
        {
          "internalType": "uint256",
          "name": "_id",
          "type": "uint256"
        },
        {
          "internalType": "address",
          "name": "_address",
          "type": "address"
        }
      ],
      "name": "isNominee",
      "outputs": [
        {
          "internalType": "bool",
          "name": "",
          "type": "bool"
        }
      ],
      "stateMutability": "view",
      "type": "function",
      "constant": true
    }
  ],
  "bytecode": "0x608060405234801561001057600080fd5b5061232d806100206000396000f3fe608060405234801561001057600080fd5b50600436106100ea5760003560e01c8063663b3e221161008c578063a0bdb00311610066578063a0bdb00314610261578063c0af6cc61461027f578063d4bd5a0d146102b0578063f5bdaa18146102cc576100ea565b8063663b3e22146101de578063776b28b7146102155780637d60af9114610231576100ea565b80633ce2d7fa116100c85780633ce2d7fa146101585780634f916fb01461017457806351640fee14610190578063601b349c146101c2576100ea565b80631368e7c3146100ef57806320e2bef71461012057806329507f731461013c575b600080fd5b61010960048036038101906101049190611791565b6102e8565b6040516101179291906117ec565b60405180910390f35b61013a6004803603810190610135919061195b565b610333565b005b61015660048036038101906101519190611791565b6104dd565b005b610172600480360381019061016d91906119de565b610789565b005b61018e60048036038101906101899190611791565b6108ca565b005b6101aa60048036038101906101a59190611a3a565b610a0c565b6040516101b993929190611afe565b60405180910390f35b6101dc60048036038101906101d79190611791565b610b41565b005b6101f860048036038101906101f39190611a3a565b610de9565b60405161020c989796959493929190611b4b565b60405180910390f35b61022f600480360381019061022a9190611bd0565b610f06565b005b61024b60048036038101906102469190611791565b611144565b6040516102589190611c10565b60405180910390f35b6102696111f2565b6040516102769190611c2b565b60405180910390f35b61029960048036038101906102949190611791565b6111f8565b6040516102a79291906117ec565b60405180910390f35b6102ca60048036038101906102c59190611791565b61130c565b005b6102e660048036038101906102e19190611791565b6114fb565b005b6001602052816000526040600020602052806000526040600020600091509150508060000160009054906101000a900460ff16908060000160019054906101000a900460ff16905082565b6000600254905060008060008381526020019081526020016000209050818160000181905550338160010160006101000a81548173ffffffffffffffffffffffffffffffffffffffff021916908373ffffffffffffffffffffffffffffffffffffffff160217905550858160020160006101000a81548173ffffffffffffffffffffffffffffffffffffffff021916908373ffffffffffffffffffffffffffffffffffffffff160217905550848160060190805190602001906103f7929190611646565b5060008160070160006101000a81548160ff02191690831515021790555080600901829080600181540180825580915050600190039060005260206000200160009091909190915055600180600084815260200190815260200160002060003373ffffffffffffffffffffffffffffffffffffffff1673ffffffffffffffffffffffffffffffffffffffff16815260200190815260200160002060000160016101000a81548160ff0219169083151502179055508381600a01819055508281600b0181905550600260008154809291906104d090611c75565b9190505550505050505050565b6002548210610521576040517f08c379a000000000000000000000000000000000000000000000000000000000815260040161051890611d09565b60405180910390fd5b600080600084815260200190815260200160002090508060010160009054906101000a900473ffffffffffffffffffffffffffffffffffffffff1673ffffffffffffffffffffffffffffffffffffffff163373ffffffffffffffffffffffffffffffffffffffff16146105c9576040517f08c379a00000000000000000000000000000000000000000000000000000000081526004016105c090611d9b565b60405180910390fd5b818160010160006101000a81548173ffffffffffffffffffffffffffffffffffffffff021916908373ffffffffffffffffffffffffffffffffffffffff1602179055506001600084815260200190815260200160002060003373ffffffffffffffffffffffffffffffffffffffff1673ffffffffffffffffffffffffffffffffffffffff1681526020019081526020016000206001600085815260200190815260200160002060008473ffffffffffffffffffffffffffffffffffffffff1673ffffffffffffffffffffffffffffffffffffffff1681526020019081526020016000206000820160009054906101000a900460ff168160000160006101000a81548160ff0219169083151502179055506000820160019054906101000a900460ff168160000160016101000a81548160ff0219169083151502179055509050506001600084815260200190815260200160002060003373ffffffffffffffffffffffffffffffffffffffff1673ffffffffffffffffffffffffffffffffffffffff168152602001908152602001600020600080820160006101000a81549060ff02191690556000820160016101000a81549060ff02191690555050505050565b60025482106107cd576040517f08c379a00000000000000000000000000000000000000000000000000000000081526004016107c490611d09565b60405180910390fd5b600080600084815260200190815260200160002090503373ffffffffffffffffffffffffffffffffffffffff168160010160009054906101000a900473ffffffffffffffffffffffffffffffffffffffff1673ffffffffffffffffffffffffffffffffffffffff1603610875576040517f08c379a000000000000000000000000000000000000000000000000000000000815260040161086c90611e2d565b60405180910390fd5b80600501600081548092919061088a90611c75565b9190505550818160060190805190602001906108a7929190611646565b5060018160070160006101000a81548160ff021916908315150217905550505050565b600254821061090e576040517f08c379a000000000000000000000000000000000000000000000000000000000815260040161090590611d09565b60405180910390fd5b600080600084815260200190815260200160002090503373ffffffffffffffffffffffffffffffffffffffff168160020160009054906101000a900473ffffffffffffffffffffffffffffffffffffffff1673ffffffffffffffffffffffffffffffffffffffff16146109b6576040517f08c379a00000000000000000000000000000000000000000000000000000000081526004016109ad90611ebf565b60405180910390fd5b8060030160008373ffffffffffffffffffffffffffffffffffffffff1673ffffffffffffffffffffffffffffffffffffffff16815260200190815260200160002060006101000a81549060ff0219169055505050565b6000606060006002548410610a56576040517f08c379a0000000000000000000000000000000000000000000000000000000008152600401610a4d90611d09565b60405180910390fd5b600080600086815260200190815260200160002090508060010160009054906101000a900473ffffffffffffffffffffffffffffffffffffffff16816006018260070160009054906101000a900460ff16818054610ab390611f0e565b80601f0160208091040260200160405190810160405280929190818152602001828054610adf90611f0e565b8015610b2c5780601f10610b0157610100808354040283529160200191610b2c565b820191906000526020600020905b815481529060010190602001808311610b0f57829003601f168201915b50505050509150935093509350509193909250565b6002548210610b85576040517f08c379a0000000000000000000000000000000000000000000000000000000008152600401610b7c90611d09565b60405180910390fd5b600080600084815260200190815260200160002090508060010160009054906101000a900473ffffffffffffffffffffffffffffffffffffffff1673ffffffffffffffffffffffffffffffffffffffff163373ffffffffffffffffffffffffffffffffffffffff161480610c5657506001600084815260200190815260200160002060003373ffffffffffffffffffffffffffffffffffffffff1673ffffffffffffffffffffffffffffffffffffffff16815260200190815260200160002060000160019054906101000a900460ff165b610c95576040517f08c379a0000000000000000000000000000000000000000000000000000000008152600401610c8c90611fd7565b60405180910390fd5b6001600084815260200190815260200160002060008373ffffffffffffffffffffffffffffffffffffffff1673ffffffffffffffffffffffffffffffffffffffff168152602001908152602001600020600080820160006101000a81549060ff02191690556000820160016101000a81549060ff0219169055505060005b8160090180549050811015610de35783826009018281548110610d3957610d38611ff7565b5b906000526020600020015403610dd0578160090160018360090180549050610d619190612026565b81548110610d7257610d71611ff7565b5b9060005260206000200154826009018281548110610d9357610d92611ff7565b5b906000526020600020018190555081600901805480610db557610db461205a565b5b60019003818190600052602060002001600090559055610de3565b8080610ddb90611c75565b915050610d13565b50505050565b60006020528060005260406000206000915090508060000154908060010160009054906101000a900473ffffffffffffffffffffffffffffffffffffffff16908060020160009054906101000a900473ffffffffffffffffffffffffffffffffffffffff1690806005015490806006018054610e6490611f0e565b80601f0160208091040260200160405190810160405280929190818152602001828054610e9090611f0e565b8015610edd5780601f10610eb257610100808354040283529160200191610edd565b820191906000526020600020905b815481529060010190602001808311610ec057829003601f168201915b5050505050908060070160009054906101000a900460ff169080600a01549080600b0154905088565b6002548210610f4a576040517f08c379a0000000000000000000000000000000000000000000000000000000008152600401610f4190611d09565b60405180910390fd5b600080600084815260200190815260200160002090503373ffffffffffffffffffffffffffffffffffffffff168160010160009054906101000a900473ffffffffffffffffffffffffffffffffffffffff1673ffffffffffffffffffffffffffffffffffffffff16148061101b57506001600084815260200190815260200160002060003373ffffffffffffffffffffffffffffffffffffffff1673ffffffffffffffffffffffffffffffffffffffff16815260200190815260200160002060000160019054906101000a900460ff165b61105a576040517f08c379a000000000000000000000000000000000000000000000000000000000815260040161105190612121565b60405180910390fd5b806005015482106110a0576040517f08c379a00000000000000000000000000000000000000000000000000000000081526004016110979061218d565b60405180910390fd5b600181600401600084815260200190815260200160002060030160003373ffffffffffffffffffffffffffffffffffffffff1673ffffffffffffffffffffffffffffffffffffffff16815260200190815260200160002060006101000a81548160ff021916908315150217905550600181600401600084815260200190815260200160002060040160006101000a81548160ff021916908315150217905550505050565b6000600254831061118a576040517f08c379a000000000000000000000000000000000000000000000000000000000815260040161118190611d09565b60405180910390fd5b60008084815260200190815260200160002060030160008373ffffffffffffffffffffffffffffffffffffffff1673ffffffffffffffffffffffffffffffffffffffff16815260200190815260200160002060009054906101000a900460ff16905092915050565b60025481565b600080600254841061123f576040517f08c379a000000000000000000000000000000000000000000000000000000000815260040161123690611d09565b60405180910390fd5b6001600085815260200190815260200160002060008473ffffffffffffffffffffffffffffffffffffffff1673ffffffffffffffffffffffffffffffffffffffff16815260200190815260200160002060000160009054906101000a900460ff166001600086815260200190815260200160002060008573ffffffffffffffffffffffffffffffffffffffff1673ffffffffffffffffffffffffffffffffffffffff16815260200190815260200160002060000160019054906101000a900460ff16915091509250929050565b6002548210611350576040517f08c379a000000000000000000000000000000000000000000000000000000000815260040161134790611d09565b60405180910390fd5b600080600084815260200190815260200160002090508060010160009054906101000a900473ffffffffffffffffffffffffffffffffffffffff1673ffffffffffffffffffffffffffffffffffffffff163373ffffffffffffffffffffffffffffffffffffffff16148061142157506001600084815260200190815260200160002060003373ffffffffffffffffffffffffffffffffffffffff1673ffffffffffffffffffffffffffffffffffffffff16815260200190815260200160002060000160019054906101000a900460ff165b611460576040517f08c379a000000000000000000000000000000000000000000000000000000000815260040161145790612245565b60405180910390fd5b600180600085815260200190815260200160002060008473ffffffffffffffffffffffffffffffffffffffff1673ffffffffffffffffffffffffffffffffffffffff16815260200190815260200160002060000160006101000a81548160ff02191690831515021790555080600901839080600181540180825580915050600190039060005260206000200160009091909190915055505050565b600254821061153f576040517f08c379a000000000000000000000000000000000000000000000000000000000815260040161153690611d09565b60405180910390fd5b600080600084815260200190815260200160002090503373ffffffffffffffffffffffffffffffffffffffff168160020160009054906101000a900473ffffffffffffffffffffffffffffffffffffffff1673ffffffffffffffffffffffffffffffffffffffff16146115e7576040517f08c379a00000000000000000000000000000000000000000000000000000000081526004016115de906122d7565b60405180910390fd5b60018160030160008473ffffffffffffffffffffffffffffffffffffffff1673ffffffffffffffffffffffffffffffffffffffff16815260200190815260200160002060006101000a81548160ff021916908315150217905550505050565b82805461165290611f0e565b90600052602060002090601f01602090048101928261167457600085556116bb565b82601f1061168d57805160ff19168380011785556116bb565b828001600101855582156116bb579182015b828111156116ba57825182559160200191906001019061169f565b5b5090506116c891906116cc565b5090565b5b808211156116e55760008160009055506001016116cd565b5090565b6000604051905090565b600080fd5b600080fd5b6000819050919050565b611710816116fd565b811461171b57600080fd5b50565b60008135905061172d81611707565b92915050565b600073ffffffffffffffffffffffffffffffffffffffff82169050919050565b600061175e82611733565b9050919050565b61176e81611753565b811461177957600080fd5b50565b60008135905061178b81611765565b92915050565b600080604083850312156117a8576117a76116f3565b5b60006117b68582860161171e565b92505060206117c78582860161177c565b9150509250929050565b60008115159050919050565b6117e6816117d1565b82525050565b600060408201905061180160008301856117dd565b61180e60208301846117dd565b9392505050565b600080fd5b600080fd5b6000601f19601f8301169050919050565b7f4e487b7100000000000000000000000000000000000000000000000000000000600052604160045260246000fd5b6118688261181f565b810181811067ffffffffffffffff8211171561188757611886611830565b5b80604052505050565b600061189a6116e9565b90506118a6828261185f565b919050565b600067ffffffffffffffff8211156118c6576118c5611830565b5b6118cf8261181f565b9050602081019050919050565b82818337600083830152505050565b60006118fe6118f9846118ab565b611890565b90508281526020810184848401111561191a5761191961181a565b5b6119258482856118dc565b509392505050565b600082601f83011261194257611941611815565b5b81356119528482602086016118eb565b91505092915050565b60008060008060808587031215611975576119746116f3565b5b60006119838782880161177c565b945050602085013567ffffffffffffffff8111156119a4576119a36116f8565b5b6119b08782880161192d565b93505060406119c18782880161171e565b92505060606119d28782880161171e565b91505092959194509250565b600080604083850312156119f5576119f46116f3565b5b6000611a038582860161171e565b925050602083013567ffffffffffffffff811115611a2457611a236116f8565b5b611a308582860161192d565b9150509250929050565b600060208284031215611a5057611a4f6116f3565b5b6000611a5e8482850161171e565b91505092915050565b611a7081611753565b82525050565b600081519050919050565b600082825260208201905092915050565b60005b83811015611ab0578082015181840152602081019050611a95565b83811115611abf576000848401525b50505050565b6000611ad082611a76565b611ada8185611a81565b9350611aea818560208601611a92565b611af38161181f565b840191505092915050565b6000606082019050611b136000830186611a67565b8181036020830152611b258185611ac5565b9050611b3460408301846117dd565b949350505050565b611b45816116fd565b82525050565b600061010082019050611b61600083018b611b3c565b611b6e602083018a611a67565b611b7b6040830189611a67565b611b886060830188611b3c565b8181036080830152611b9a8187611ac5565b9050611ba960a08301866117dd565b611bb660c0830185611b3c565b611bc360e0830184611b3c565b9998505050505050505050565b60008060408385031215611be757611be66116f3565b5b6000611bf58582860161171e565b9250506020611c068582860161171e565b9150509250929050565b6000602082019050611c2560008301846117dd565b92915050565b6000602082019050611c406000830184611b3c565b92915050565b7f4e487b7100000000000000000000000000000000000000000000000000000000600052601160045260246000fd5b6000611c80826116fd565b91507fffffffffffffffffffffffffffffffffffffffffffffffffffffffffffffffff8203611cb257611cb1611c46565b5b600182019050919050565b7f436572746966696361746520646f6573206e6f74206578697374000000000000600082015250565b6000611cf3601a83611a81565b9150611cfe82611cbd565b602082019050919050565b60006020820190508181036000830152611d2281611ce6565b9050919050565b7f4f6e6c79207468652063757272656e74206f776e65722063616e207472616e7360008201527f666572206f776e65727368697000000000000000000000000000000000000000602082015250565b6000611d85602d83611a81565b9150611d9082611d29565b604082019050919050565b60006020820190508181036000830152611db481611d78565b9050919050565b7f4f6e6c79206e6f6e2d63617272696572732063616e207265717565737420636860008201527f616e676573000000000000000000000000000000000000000000000000000000602082015250565b6000611e17602583611a81565b9150611e2282611dbb565b604082019050919050565b60006020820190508181036000830152611e4681611e0a565b9050919050565b7f4f6e6c7920746865206d61696e206f776e65722063616e2072656d6f7665206e60008201527f6f6d696e65657300000000000000000000000000000000000000000000000000602082015250565b6000611ea9602783611a81565b9150611eb482611e4d565b604082019050919050565b60006020820190508181036000830152611ed881611e9c565b9050919050565b7f4e487b7100000000000000000000000000000000000000000000000000000000600052602260045260246000fd5b60006002820490506001821680611f2657607f821691505b602082108103611f3957611f38611edf565b5b50919050565b7f4f6e6c79207468652063617272696572206f7220636f6c6c61626f7261746f7260008201527f2077697468206f776e6572736869702063616e2072656d6f766520636f6c6c6160208201527f626f7261746f7273000000000000000000000000000000000000000000000000604082015250565b6000611fc1604883611a81565b9150611fcc82611f3f565b606082019050919050565b60006020820190508181036000830152611ff081611fb4565b9050919050565b7f4e487b7100000000000000000000000000000000000000000000000000000000600052603260045260246000fd5b6000612031826116fd565b915061203c836116fd565b92508282101561204f5761204e611c46565b5b828203905092915050565b7f4e487b7100000000000000000000000000000000000000000000000000000000600052603160045260246000fd5b7f4f6e6c79207468652063617272696572206f7220636f6c6c61626f7261746f7260008201527f2077697468206f776e6572736869702063616e20617070726f7665206368616e60208201527f6765730000000000000000000000000000000000000000000000000000000000604082015250565b600061210b604383611a81565b915061211682612089565b606082019050919050565b6000602082019050818103600083015261213a816120fe565b9050919050565b7f496e76616c6964206368616e6765204944000000000000000000000000000000600082015250565b6000612177601183611a81565b915061218282612141565b602082019050919050565b600060208201905081810360008301526121a68161216a565b9050919050565b7f4f6e6c79207468652063617272696572206f7220636f6c6c61626f7261746f7260008201527f2077697468206f776e6572736869702063616e2061646420636f6c6c61626f7260208201527f61746f7273000000000000000000000000000000000000000000000000000000604082015250565b600061222f604583611a81565b915061223a826121ad565b606082019050919050565b6000602082019050818103600083015261225e81612222565b9050919050565b7f4f6e6c7920746865206d61696e206f776e65722063616e20616464206e6f6d6960008201527f6e65657300000000000000000000000000000000000000000000000000000000602082015250565b60006122c1602483611a81565b91506122cc82612265565b604082019050919050565b600060208201905081810360008301526122f0816122b4565b905091905056fea2646970667358221220df9584abf2a210646614b711b7842b6c363a11492f66b4da08692211073c4f7564736f6c634300080d0033",
  "immutableReferences": {},
  "source": "// SPDX-License-Identifier: MIT\npragma solidity ^0.8.0;\n\ncontract CertificateManagement {\n    struct CertificateCreation {\n        uint256 id;\n        address carrier;\n        address recipient;  // Main owner\n        mapping(address => bool) nominees;  // Updated to mapping\n        mapping(uint256 => Change) changes; // Map change ID to Change struct\n        uint256 changesCount; // Counter for tracking changes\n        string data;\n        bool isFinalized;\n        mapping(address => bool) approvals;\n        uint256[] collaboratorIds; // List of collaborator IDs for this certificate\n        uint256 manufacturingDate;\n        uint256 expiryDate;\n    }\n\n    struct Collaborator {\n        bool hasViewAccess;\n        bool hasOwnership;\n    }\n\n    struct Change {\n        uint256 changeId;\n        address initiator;\n        string updatedData;\n        mapping(address => bool) approvals;\n        bool isApproved;\n    }\n\n    mapping(uint256 => CertificateCreation) public certificates;\n    mapping(uint256 => mapping(address => Collaborator)) public collaborators;\n\n    uint256 public nextCertificateId;\n\n    // Function to create a new certificate\n    function createCertificate(\n        address _recipient,\n        string memory _data,\n        uint256 _manufacturingDate,\n        uint256 _expiryDate\n    ) public {\n        uint256 newId = nextCertificateId;\n        CertificateCreation storage newCertificate = certificates[newId];\n        newCertificate.id = newId;\n        newCertificate.carrier = msg.sender;\n        newCertificate.recipient = _recipient;\n        newCertificate.data = _data;\n        newCertificate.isFinalized = false;\n        newCertificate.collaboratorIds.push(newId); // Add the carrier as the first collaborator\n        collaborators[newId][msg.sender].hasOwnership = true;\n        newCertificate.manufacturingDate = _manufacturingDate;\n        newCertificate.expiryDate = _expiryDate;\n        nextCertificateId++;\n    }\n\n    // Function to request changes to a certificate\n    function requestChanges(uint256 _id, string memory _updatedData) public {\n        require(_id < nextCertificateId, \"Certificate does not exist\");\n        CertificateCreation storage cert = certificates[_id];\n        require(cert.carrier != msg.sender, \"Only non-carriers can request changes\");\n\n      \n\n        cert.changesCount++;\n\n        // Once all parties sign off, update the certificate\n        // For simplicity, let's assume all parties approved the changes\n        cert.data = _updatedData;\n        cert.isFinalized = true;\n    }\n\n    // Function to approve changes to a certificate\n    function approveChanges(uint256 _id, uint256 _changeId) public {\n        require(_id < nextCertificateId, \"Certificate does not exist\");\n        CertificateCreation storage cert = certificates[_id];\n        require(cert.carrier == msg.sender || collaborators[_id][msg.sender].hasOwnership, \"Only the carrier or collaborator with ownership can approve changes\");\n\n        // Ensure the change ID is valid\n        require(_changeId < cert.changesCount, \"Invalid change ID\");\n\n        // Approve the change\n        cert.changes[_changeId].approvals[msg.sender] = true;\n        cert.changes[_changeId].isApproved = true;\n    }\n\n    // Function to transfer ownership to another address\n    function transferOwnership(uint256 _id, address _newOwner) public {\n        require(_id < nextCertificateId, \"Certificate does not exist\");\n        CertificateCreation storage cert = certificates[_id];\n        require(msg.sender == cert.carrier, \"Only the current owner can transfer ownership\");\n\n        // Remove the current owner as the carrier and add the new owner\n        cert.carrier = _newOwner;\n\n        // Transfer ownership in collaborators mapping\n        collaborators[_id][_newOwner] = collaborators[_id][msg.sender];\n        delete collaborators[_id][msg.sender];\n    }\n\n    // Function to add a collaborator with view access\n    function addCollaborator(uint256 _id, address _collaborator) public {\n        require(_id < nextCertificateId, \"Certificate does not exist\");\n        CertificateCreation storage cert = certificates[_id];\n        require(msg.sender == cert.carrier || collaborators[_id][msg.sender].hasOwnership, \"Only the carrier or collaborator with ownership can add collaborators\");\n\n        // Add the collaborator to the collaborator mapping with view access\n        collaborators[_id][_collaborator].hasViewAccess = true;\n        // Add the collaborator ID to the certificate's collaboratorIds array\n        cert.collaboratorIds.push(_id);\n    }\n\n    // Function to remove a collaborator\n    function removeCollaborator(uint256 _id, address _collaborator) public {\n        require(_id < nextCertificateId, \"Certificate does not exist\");\n        CertificateCreation storage cert = certificates[_id];\n        require(msg.sender == cert.carrier || collaborators[_id][msg.sender].hasOwnership, \"Only the carrier or collaborator with ownership can remove collaborators\");\n\n        // Remove the collaborator from the collaborator mapping\n        delete collaborators[_id][_collaborator];\n        // Remove the collaborator ID from the certificate's collaboratorIds array\n        for (uint256 i = 0; i < cert.collaboratorIds.length; i++) {\n            if (cert.collaboratorIds[i] == _id) {\n                cert.collaboratorIds[i] = cert.collaboratorIds[cert.collaboratorIds.length - 1];\n                cert.collaboratorIds.pop();\n                break;\n            }\n        }\n    }\n\n   // Function to add a nominee\n    function addNominee(uint256 _id, address _nominee) public {\n        require(_id < nextCertificateId, \"Certificate does not exist\");\n        CertificateCreation storage cert = certificates[_id];\n        require(cert.recipient == msg.sender, \"Only the main owner can add nominees\");\n\n        // Add the nominee to the nominees mapping\n        cert.nominees[_nominee] = true;\n    }\n\n    // Function to remove a nominee\n    function removeNominee(uint256 _id, address _nominee) public {\n        require(_id < nextCertificateId, \"Certificate does not exist\");\n        CertificateCreation storage cert = certificates[_id];\n        require(cert.recipient == msg.sender, \"Only the main owner can remove nominees\");\n\n        // Remove the nominee from the nominees mapping\n        delete cert.nominees[_nominee];\n    }\n\n    // Function to retrieve certificate details\n    function getCertificate(uint256 _id) public view returns (address, string memory, bool) {\n        require(_id < nextCertificateId, \"Certificate does not exist\");\n        CertificateCreation storage cert = certificates[_id];\n        return (cert.carrier, cert.data, cert.isFinalized);\n    }\n\n    // Function to retrieve collaborator details\n    function getCollaboratorDetails(uint256 _id, address _collaborator) public view returns (bool, bool) {\n        require(_id < nextCertificateId, \"Certificate does not exist\");\n        return (collaborators[_id][_collaborator].hasViewAccess, collaborators[_id][_collaborator].hasOwnership);\n    }\n\n  // Function to check if an address is a nominee for a certificate\nfunction isNominee(uint256 _id, address _address) public view returns (bool) {\n    require(_id < nextCertificateId, \"Certificate does not exist\");\n    return certificates[_id].nominees[_address];\n}\n}",
  "sourcePath": "C:\\Users\\Ayan Choradia\\Desktop\\Tech\\certitechd\\contracts\\CertificateManagement.sol",
  "compiler": {
    "name": "solc",
    "version": "0.8.13+commit.abaa5c0e.Emscripten.clang"
  },
  "schemaVersion": "3.4.16",
  "updatedAt": "2023-12-24T11:59:11.594Z",
  "networkType": "ethereum",
  "devdoc": {
    "kind": "dev",
    "methods": {},
    "version": 1
  },
  "userdoc": {
    "kind": "user",
    "methods": {},
    "version": 1
  }
}