{
  "contractName": "CertificateManagement",
  "abi": [
    {
      "inputs": [
        {
          "internalType": "uint256",
          "name": "",
          "type": "uint256"
        }
      ],
      "name": "certificates",
      "outputs": [
        {
          "internalType": "uint256",
          "name": "id",
          "type": "uint256"
        },
        {
          "internalType": "address",
          "name": "carrier",
          "type": "address"
        },
        {
          "internalType": "address",
          "name": "recipient",
          "type": "address"
        },
        {
          "internalType": "uint256",
          "name": "changesCount",
          "type": "uint256"
        },
        {
          "internalType": "string",
          "name": "data",
          "type": "string"
        },
        {
          "internalType": "bool",
          "name": "isFinalized",
          "type": "bool"
        },
        {
          "internalType": "uint256",
          "name": "manufacturingDate",
          "type": "uint256"
        },
        {
          "internalType": "uint256",
          "name": "expiryDate",
          "type": "uint256"
        }
      ],
      "stateMutability": "view",
      "type": "function",
      "constant": true
    },
    {
      "inputs": [
        {
          "internalType": "uint256",
          "name": "",
          "type": "uint256"
        },
        {
          "internalType": "address",
          "name": "",
          "type": "address"
        }
      ],
      "name": "collaborators",
      "outputs": [
        {
          "internalType": "bool",
          "name": "hasViewAccess",
          "type": "bool"
        },
        {
          "internalType": "bool",
          "name": "hasOwnership",
          "type": "bool"
        }
      ],
      "stateMutability": "view",
      "type": "function",
      "constant": true
    },
    {
      "inputs": [],
      "name": "nextCertificateId",
      "outputs": [
        {
          "internalType": "uint256",
          "name": "",
          "type": "uint256"
        }
      ],
      "stateMutability": "view",
      "type": "function",
      "constant": true
    },
    {
      "inputs": [],
      "name": "tempCount",
      "outputs": [
        {
          "internalType": "uint256",
          "name": "",
          "type": "uint256"
        }
      ],
      "stateMutability": "view",
      "type": "function",
      "constant": true
    },
    {
      "inputs": [
        {
          "internalType": "address",
          "name": "_recipient",
          "type": "address"
        },
        {
          "internalType": "string",
          "name": "_data",
          "type": "string"
        },
        {
          "internalType": "uint256",
          "name": "_manufacturingDate",
          "type": "uint256"
        },
        {
          "internalType": "uint256",
          "name": "_expiryDate",
          "type": "uint256"
        }
      ],
      "name": "createCertificate",
      "outputs": [],
      "stateMutability": "payable",
      "type": "function",
      "payable": true
    },
    {
      "inputs": [
        {
          "internalType": "uint256",
          "name": "_id",
          "type": "uint256"
        },
        {
          "internalType": "string",
          "name": "_updatedData",
          "type": "string"
        }
      ],
      "name": "requestChanges",
      "outputs": [],
      "stateMutability": "nonpayable",
      "type": "function"
    },
    {
      "inputs": [
        {
          "internalType": "uint256",
          "name": "_id",
          "type": "uint256"
        },
        {
          "internalType": "uint256",
          "name": "_changeId",
          "type": "uint256"
        }
      ],
      "name": "approveChanges",
      "outputs": [],
      "stateMutability": "nonpayable",
      "type": "function"
    },
    {
      "inputs": [
        {
          "internalType": "uint256",
          "name": "_id",
          "type": "uint256"
        },
        {
          "internalType": "address",
          "name": "_newOwner",
          "type": "address"
        }
      ],
      "name": "transferOwnership",
      "outputs": [],
      "stateMutability": "nonpayable",
      "type": "function"
    },
    {
      "inputs": [
        {
          "internalType": "uint256",
          "name": "_id",
          "type": "uint256"
        },
        {
          "internalType": "address",
          "name": "_collaborator",
          "type": "address"
        }
      ],
      "name": "addCollaborator",
      "outputs": [],
      "stateMutability": "nonpayable",
      "type": "function"
    },
    {
      "inputs": [
        {
          "internalType": "uint256",
          "name": "_id",
          "type": "uint256"
        },
        {
          "internalType": "address",
          "name": "_collaborator",
          "type": "address"
        }
      ],
      "name": "removeCollaborator",
      "outputs": [],
      "stateMutability": "nonpayable",
      "type": "function"
    },
    {
      "inputs": [
        {
          "internalType": "uint256",
          "name": "_id",
          "type": "uint256"
        },
        {
          "internalType": "address",
          "name": "_nominee",
          "type": "address"
        }
      ],
      "name": "addNominee",
      "outputs": [],
      "stateMutability": "nonpayable",
      "type": "function"
    },
    {
      "inputs": [
        {
          "internalType": "uint256",
          "name": "_id",
          "type": "uint256"
        },
        {
          "internalType": "address",
          "name": "_nominee",
          "type": "address"
        }
      ],
      "name": "removeNominee",
      "outputs": [],
      "stateMutability": "nonpayable",
      "type": "function"
    },
    {
      "inputs": [
        {
          "internalType": "uint256",
          "name": "_id",
          "type": "uint256"
        }
      ],
      "name": "getCertificate",
      "outputs": [
        {
          "internalType": "address",
          "name": "",
          "type": "address"
        },
        {
          "internalType": "string",
          "name": "",
          "type": "string"
        },
        {
          "internalType": "bool",
          "name": "",
          "type": "bool"
        }
      ],
      "stateMutability": "view",
      "type": "function",
      "constant": true
    },
    {
      "inputs": [
        {
          "internalType": "uint256",
          "name": "_id",
          "type": "uint256"
        },
        {
          "internalType": "address",
          "name": "_collaborator",
          "type": "address"
        }
      ],
      "name": "getCollaboratorDetails",
      "outputs": [
        {
          "internalType": "bool",
          "name": "",
          "type": "bool"
        },
        {
          "internalType": "bool",
          "name": "",
          "type": "bool"
        }
      ],
      "stateMutability": "view",
      "type": "function",
      "constant": true
    },
    {
      "inputs": [
        {
          "internalType": "uint256",
          "name": "_id",
          "type": "uint256"
        },
        {
          "internalType": "address",
          "name": "_address",
          "type": "address"
        }
      ],
      "name": "isNominee",
      "outputs": [
        {
          "internalType": "bool",
          "name": "",
          "type": "bool"
        }
      ],
      "stateMutability": "view",
      "type": "function",
      "constant": true
    },
    {
      "inputs": [],
      "name": "getTempCount",
      "outputs": [
        {
          "internalType": "uint256",
          "name": "",
          "type": "uint256"
        }
      ],
      "stateMutability": "view",
      "type": "function",
      "constant": true
    },
    {
      "inputs": [],
      "name": "setTempCount",
      "outputs": [],
      "stateMutability": "payable",
      "type": "function",
      "payable": true
    }
  ],
  "bytecode": "0x6080604052600060035534801561001557600080fd5b506124c7806100256000396000f3fe6080604052600436106100fe5760003560e01c8063776b28b711610095578063c0d27b3511610064578063c0d27b3514610353578063d4bd5a0d1461037e578063e422e101146103a7578063e6c523d9146103b1578063f5bdaa18146103dc576100fe565b8063776b28b7146102845780637d60af91146102ad578063a0bdb003146102ea578063c0af6cc614610315576100fe565b80634f916fb0116100d15780634f916fb0146101af57806351640fee146101d8578063601b349c14610217578063663b3e2214610240576100fe565b80631368e7c31461010357806320e2bef71461014157806329507f731461015d5780633ce2d7fa14610186575b600080fd5b34801561010f57600080fd5b5061012a600480360381019061012591906118d5565b610405565b604051610138929190611930565b60405180910390f35b61015b60048036038101906101569190611a9f565b610450565b005b34801561016957600080fd5b50610184600480360381019061017f91906118d5565b6105fa565b005b34801561019257600080fd5b506101ad60048036038101906101a89190611b22565b6108a6565b005b3480156101bb57600080fd5b506101d660048036038101906101d191906118d5565b6109e7565b005b3480156101e457600080fd5b506101ff60048036038101906101fa9190611b7e565b610b29565b60405161020e93929190611c42565b60405180910390f35b34801561022357600080fd5b5061023e600480360381019061023991906118d5565b610c5e565b005b34801561024c57600080fd5b5061026760048036038101906102629190611b7e565b610f06565b60405161027b989796959493929190611c8f565b60405180910390f35b34801561029057600080fd5b506102ab60048036038101906102a69190611d14565b611023565b005b3480156102b957600080fd5b506102d460048036038101906102cf91906118d5565b611261565b6040516102e19190611d54565b60405180910390f35b3480156102f657600080fd5b506102ff61130f565b60405161030c9190611d6f565b60405180910390f35b34801561032157600080fd5b5061033c600480360381019061033791906118d5565b611315565b60405161034a929190611930565b60405180910390f35b34801561035f57600080fd5b50610368611429565b6040516103759190611d6f565b60405180910390f35b34801561038a57600080fd5b506103a560048036038101906103a091906118d5565b61142f565b005b6103af61161e565b005b3480156103bd57600080fd5b506103c6611635565b6040516103d39190611d6f565b60405180910390f35b3480156103e857600080fd5b5061040360048036038101906103fe91906118d5565b61163f565b005b6001602052816000526040600020602052806000526040600020600091509150508060000160009054906101000a900460ff16908060000160019054906101000a900460ff16905082565b6000600254905060008060008381526020019081526020016000209050818160000181905550338160010160006101000a81548173ffffffffffffffffffffffffffffffffffffffff021916908373ffffffffffffffffffffffffffffffffffffffff160217905550858160020160006101000a81548173ffffffffffffffffffffffffffffffffffffffff021916908373ffffffffffffffffffffffffffffffffffffffff1602179055508481600601908051906020019061051492919061178a565b5060008160070160006101000a81548160ff02191690831515021790555080600901829080600181540180825580915050600190039060005260206000200160009091909190915055600180600084815260200190815260200160002060003373ffffffffffffffffffffffffffffffffffffffff1673ffffffffffffffffffffffffffffffffffffffff16815260200190815260200160002060000160016101000a81548160ff0219169083151502179055508381600a01819055508281600b0181905550600260008154809291906105ed90611db9565b9190505550505050505050565b600254821061063e576040517f08c379a000000000000000000000000000000000000000000000000000000000815260040161063590611e4d565b60405180910390fd5b600080600084815260200190815260200160002090508060010160009054906101000a900473ffffffffffffffffffffffffffffffffffffffff1673ffffffffffffffffffffffffffffffffffffffff163373ffffffffffffffffffffffffffffffffffffffff16146106e6576040517f08c379a00000000000000000000000000000000000000000000000000000000081526004016106dd90611edf565b60405180910390fd5b818160010160006101000a81548173ffffffffffffffffffffffffffffffffffffffff021916908373ffffffffffffffffffffffffffffffffffffffff1602179055506001600084815260200190815260200160002060003373ffffffffffffffffffffffffffffffffffffffff1673ffffffffffffffffffffffffffffffffffffffff1681526020019081526020016000206001600085815260200190815260200160002060008473ffffffffffffffffffffffffffffffffffffffff1673ffffffffffffffffffffffffffffffffffffffff1681526020019081526020016000206000820160009054906101000a900460ff168160000160006101000a81548160ff0219169083151502179055506000820160019054906101000a900460ff168160000160016101000a81548160ff0219169083151502179055509050506001600084815260200190815260200160002060003373ffffffffffffffffffffffffffffffffffffffff1673ffffffffffffffffffffffffffffffffffffffff168152602001908152602001600020600080820160006101000a81549060ff02191690556000820160016101000a81549060ff02191690555050505050565b60025482106108ea576040517f08c379a00000000000000000000000000000000000000000000000000000000081526004016108e190611e4d565b60405180910390fd5b600080600084815260200190815260200160002090503373ffffffffffffffffffffffffffffffffffffffff168160010160009054906101000a900473ffffffffffffffffffffffffffffffffffffffff1673ffffffffffffffffffffffffffffffffffffffff1603610992576040517f08c379a000000000000000000000000000000000000000000000000000000000815260040161098990611f71565b60405180910390fd5b8060050160008154809291906109a790611db9565b9190505550818160060190805190602001906109c492919061178a565b5060018160070160006101000a81548160ff021916908315150217905550505050565b6002548210610a2b576040517f08c379a0000000000000000000000000000000000000000000000000000000008152600401610a2290611e4d565b60405180910390fd5b600080600084815260200190815260200160002090503373ffffffffffffffffffffffffffffffffffffffff168160020160009054906101000a900473ffffffffffffffffffffffffffffffffffffffff1673ffffffffffffffffffffffffffffffffffffffff1614610ad3576040517f08c379a0000000000000000000000000000000000000000000000000000000008152600401610aca90612003565b60405180910390fd5b8060030160008373ffffffffffffffffffffffffffffffffffffffff1673ffffffffffffffffffffffffffffffffffffffff16815260200190815260200160002060006101000a81549060ff0219169055505050565b6000606060006002548410610b73576040517f08c379a0000000000000000000000000000000000000000000000000000000008152600401610b6a90611e4d565b60405180910390fd5b600080600086815260200190815260200160002090508060010160009054906101000a900473ffffffffffffffffffffffffffffffffffffffff16816006018260070160009054906101000a900460ff16818054610bd090612052565b80601f0160208091040260200160405190810160405280929190818152602001828054610bfc90612052565b8015610c495780601f10610c1e57610100808354040283529160200191610c49565b820191906000526020600020905b815481529060010190602001808311610c2c57829003601f168201915b50505050509150935093509350509193909250565b6002548210610ca2576040517f08c379a0000000000000000000000000000000000000000000000000000000008152600401610c9990611e4d565b60405180910390fd5b600080600084815260200190815260200160002090508060010160009054906101000a900473ffffffffffffffffffffffffffffffffffffffff1673ffffffffffffffffffffffffffffffffffffffff163373ffffffffffffffffffffffffffffffffffffffff161480610d7357506001600084815260200190815260200160002060003373ffffffffffffffffffffffffffffffffffffffff1673ffffffffffffffffffffffffffffffffffffffff16815260200190815260200160002060000160019054906101000a900460ff165b610db2576040517f08c379a0000000000000000000000000000000000000000000000000000000008152600401610da99061211b565b60405180910390fd5b6001600084815260200190815260200160002060008373ffffffffffffffffffffffffffffffffffffffff1673ffffffffffffffffffffffffffffffffffffffff168152602001908152602001600020600080820160006101000a81549060ff02191690556000820160016101000a81549060ff0219169055505060005b8160090180549050811015610f005783826009018281548110610e5657610e5561213b565b5b906000526020600020015403610eed578160090160018360090180549050610e7e919061216a565b81548110610e8f57610e8e61213b565b5b9060005260206000200154826009018281548110610eb057610eaf61213b565b5b906000526020600020018190555081600901805480610ed257610ed161219e565b5b60019003818190600052602060002001600090559055610f00565b8080610ef890611db9565b915050610e30565b50505050565b60006020528060005260406000206000915090508060000154908060010160009054906101000a900473ffffffffffffffffffffffffffffffffffffffff16908060020160009054906101000a900473ffffffffffffffffffffffffffffffffffffffff1690806005015490806006018054610f8190612052565b80601f0160208091040260200160405190810160405280929190818152602001828054610fad90612052565b8015610ffa5780601f10610fcf57610100808354040283529160200191610ffa565b820191906000526020600020905b815481529060010190602001808311610fdd57829003601f168201915b5050505050908060070160009054906101000a900460ff169080600a01549080600b0154905088565b6002548210611067576040517f08c379a000000000000000000000000000000000000000000000000000000000815260040161105e90611e4d565b60405180910390fd5b600080600084815260200190815260200160002090503373ffffffffffffffffffffffffffffffffffffffff168160010160009054906101000a900473ffffffffffffffffffffffffffffffffffffffff1673ffffffffffffffffffffffffffffffffffffffff16148061113857506001600084815260200190815260200160002060003373ffffffffffffffffffffffffffffffffffffffff1673ffffffffffffffffffffffffffffffffffffffff16815260200190815260200160002060000160019054906101000a900460ff165b611177576040517f08c379a000000000000000000000000000000000000000000000000000000000815260040161116e90612265565b60405180910390fd5b806005015482106111bd576040517f08c379a00000000000000000000000000000000000000000000000000000000081526004016111b4906122d1565b60405180910390fd5b600181600401600084815260200190815260200160002060030160003373ffffffffffffffffffffffffffffffffffffffff1673ffffffffffffffffffffffffffffffffffffffff16815260200190815260200160002060006101000a81548160ff021916908315150217905550600181600401600084815260200190815260200160002060040160006101000a81548160ff021916908315150217905550505050565b600060025483106112a7576040517f08c379a000000000000000000000000000000000000000000000000000000000815260040161129e90611e4d565b60405180910390fd5b60008084815260200190815260200160002060030160008373ffffffffffffffffffffffffffffffffffffffff1673ffffffffffffffffffffffffffffffffffffffff16815260200190815260200160002060009054906101000a900460ff16905092915050565b60025481565b600080600254841061135c576040517f08c379a000000000000000000000000000000000000000000000000000000000815260040161135390611e4d565b60405180910390fd5b6001600085815260200190815260200160002060008473ffffffffffffffffffffffffffffffffffffffff1673ffffffffffffffffffffffffffffffffffffffff16815260200190815260200160002060000160009054906101000a900460ff166001600086815260200190815260200160002060008573ffffffffffffffffffffffffffffffffffffffff1673ffffffffffffffffffffffffffffffffffffffff16815260200190815260200160002060000160019054906101000a900460ff16915091509250929050565b60035481565b6002548210611473576040517f08c379a000000000000000000000000000000000000000000000000000000000815260040161146a90611e4d565b60405180910390fd5b600080600084815260200190815260200160002090508060010160009054906101000a900473ffffffffffffffffffffffffffffffffffffffff1673ffffffffffffffffffffffffffffffffffffffff163373ffffffffffffffffffffffffffffffffffffffff16148061154457506001600084815260200190815260200160002060003373ffffffffffffffffffffffffffffffffffffffff1673ffffffffffffffffffffffffffffffffffffffff16815260200190815260200160002060000160019054906101000a900460ff165b611583576040517f08c379a000000000000000000000000000000000000000000000000000000000815260040161157a90612389565b60405180910390fd5b600180600085815260200190815260200160002060008473ffffffffffffffffffffffffffffffffffffffff1673ffffffffffffffffffffffffffffffffffffffff16815260200190815260200160002060000160006101000a81548160ff02191690831515021790555080600901839080600181540180825580915050600190039060005260206000200160009091909190915055505050565b600160035461162d91906123a9565b600381905550565b6000600354905090565b6002548210611683576040517f08c379a000000000000000000000000000000000000000000000000000000000815260040161167a90611e4d565b60405180910390fd5b600080600084815260200190815260200160002090503373ffffffffffffffffffffffffffffffffffffffff168160020160009054906101000a900473ffffffffffffffffffffffffffffffffffffffff1673ffffffffffffffffffffffffffffffffffffffff161461172b576040517f08c379a000000000000000000000000000000000000000000000000000000000815260040161172290612471565b60405180910390fd5b60018160030160008473ffffffffffffffffffffffffffffffffffffffff1673ffffffffffffffffffffffffffffffffffffffff16815260200190815260200160002060006101000a81548160ff021916908315150217905550505050565b82805461179690612052565b90600052602060002090601f0160209004810192826117b857600085556117ff565b82601f106117d157805160ff19168380011785556117ff565b828001600101855582156117ff579182015b828111156117fe5782518255916020019190600101906117e3565b5b50905061180c9190611810565b5090565b5b80821115611829576000816000905550600101611811565b5090565b6000604051905090565b600080fd5b600080fd5b6000819050919050565b61185481611841565b811461185f57600080fd5b50565b6000813590506118718161184b565b92915050565b600073ffffffffffffffffffffffffffffffffffffffff82169050919050565b60006118a282611877565b9050919050565b6118b281611897565b81146118bd57600080fd5b50565b6000813590506118cf816118a9565b92915050565b600080604083850312156118ec576118eb611837565b5b60006118fa85828601611862565b925050602061190b858286016118c0565b9150509250929050565b60008115159050919050565b61192a81611915565b82525050565b60006040820190506119456000830185611921565b6119526020830184611921565b9392505050565b600080fd5b600080fd5b6000601f19601f8301169050919050565b7f4e487b7100000000000000000000000000000000000000000000000000000000600052604160045260246000fd5b6119ac82611963565b810181811067ffffffffffffffff821117156119cb576119ca611974565b5b80604052505050565b60006119de61182d565b90506119ea82826119a3565b919050565b600067ffffffffffffffff821115611a0a57611a09611974565b5b611a1382611963565b9050602081019050919050565b82818337600083830152505050565b6000611a42611a3d846119ef565b6119d4565b905082815260208101848484011115611a5e57611a5d61195e565b5b611a69848285611a20565b509392505050565b600082601f830112611a8657611a85611959565b5b8135611a96848260208601611a2f565b91505092915050565b60008060008060808587031215611ab957611ab8611837565b5b6000611ac7878288016118c0565b945050602085013567ffffffffffffffff811115611ae857611ae761183c565b5b611af487828801611a71565b9350506040611b0587828801611862565b9250506060611b1687828801611862565b91505092959194509250565b60008060408385031215611b3957611b38611837565b5b6000611b4785828601611862565b925050602083013567ffffffffffffffff811115611b6857611b6761183c565b5b611b7485828601611a71565b9150509250929050565b600060208284031215611b9457611b93611837565b5b6000611ba284828501611862565b91505092915050565b611bb481611897565b82525050565b600081519050919050565b600082825260208201905092915050565b60005b83811015611bf4578082015181840152602081019050611bd9565b83811115611c03576000848401525b50505050565b6000611c1482611bba565b611c1e8185611bc5565b9350611c2e818560208601611bd6565b611c3781611963565b840191505092915050565b6000606082019050611c576000830186611bab565b8181036020830152611c698185611c09565b9050611c786040830184611921565b949350505050565b611c8981611841565b82525050565b600061010082019050611ca5600083018b611c80565b611cb2602083018a611bab565b611cbf6040830189611bab565b611ccc6060830188611c80565b8181036080830152611cde8187611c09565b9050611ced60a0830186611921565b611cfa60c0830185611c80565b611d0760e0830184611c80565b9998505050505050505050565b60008060408385031215611d2b57611d2a611837565b5b6000611d3985828601611862565b9250506020611d4a85828601611862565b9150509250929050565b6000602082019050611d696000830184611921565b92915050565b6000602082019050611d846000830184611c80565b92915050565b7f4e487b7100000000000000000000000000000000000000000000000000000000600052601160045260246000fd5b6000611dc482611841565b91507fffffffffffffffffffffffffffffffffffffffffffffffffffffffffffffffff8203611df657611df5611d8a565b5b600182019050919050565b7f436572746966696361746520646f6573206e6f74206578697374000000000000600082015250565b6000611e37601a83611bc5565b9150611e4282611e01565b602082019050919050565b60006020820190508181036000830152611e6681611e2a565b9050919050565b7f4f6e6c79207468652063757272656e74206f776e65722063616e207472616e7360008201527f666572206f776e65727368697000000000000000000000000000000000000000602082015250565b6000611ec9602d83611bc5565b9150611ed482611e6d565b604082019050919050565b60006020820190508181036000830152611ef881611ebc565b9050919050565b7f4f6e6c79206e6f6e2d63617272696572732063616e207265717565737420636860008201527f616e676573000000000000000000000000000000000000000000000000000000602082015250565b6000611f5b602583611bc5565b9150611f6682611eff565b604082019050919050565b60006020820190508181036000830152611f8a81611f4e565b9050919050565b7f4f6e6c7920746865206d61696e206f776e65722063616e2072656d6f7665206e60008201527f6f6d696e65657300000000000000000000000000000000000000000000000000602082015250565b6000611fed602783611bc5565b9150611ff882611f91565b604082019050919050565b6000602082019050818103600083015261201c81611fe0565b9050919050565b7f4e487b7100000000000000000000000000000000000000000000000000000000600052602260045260246000fd5b6000600282049050600182168061206a57607f821691505b60208210810361207d5761207c612023565b5b50919050565b7f4f6e6c79207468652063617272696572206f7220636f6c6c61626f7261746f7260008201527f2077697468206f776e6572736869702063616e2072656d6f766520636f6c6c6160208201527f626f7261746f7273000000000000000000000000000000000000000000000000604082015250565b6000612105604883611bc5565b915061211082612083565b606082019050919050565b60006020820190508181036000830152612134816120f8565b9050919050565b7f4e487b7100000000000000000000000000000000000000000000000000000000600052603260045260246000fd5b600061217582611841565b915061218083611841565b92508282101561219357612192611d8a565b5b828203905092915050565b7f4e487b7100000000000000000000000000000000000000000000000000000000600052603160045260246000fd5b7f4f6e6c79207468652063617272696572206f7220636f6c6c61626f7261746f7260008201527f2077697468206f776e6572736869702063616e20617070726f7665206368616e60208201527f6765730000000000000000000000000000000000000000000000000000000000604082015250565b600061224f604383611bc5565b915061225a826121cd565b606082019050919050565b6000602082019050818103600083015261227e81612242565b9050919050565b7f496e76616c6964206368616e6765204944000000000000000000000000000000600082015250565b60006122bb601183611bc5565b91506122c682612285565b602082019050919050565b600060208201905081810360008301526122ea816122ae565b9050919050565b7f4f6e6c79207468652063617272696572206f7220636f6c6c61626f7261746f7260008201527f2077697468206f776e6572736869702063616e2061646420636f6c6c61626f7260208201527f61746f7273000000000000000000000000000000000000000000000000000000604082015250565b6000612373604583611bc5565b915061237e826122f1565b606082019050919050565b600060208201905081810360008301526123a281612366565b9050919050565b60006123b482611841565b91506123bf83611841565b9250827fffffffffffffffffffffffffffffffffffffffffffffffffffffffffffffffff038211156123f4576123f3611d8a565b5b828201905092915050565b7f4f6e6c7920746865206d61696e206f776e65722063616e20616464206e6f6d6960008201527f6e65657300000000000000000000000000000000000000000000000000000000602082015250565b600061245b602483611bc5565b9150612466826123ff565b604082019050919050565b6000602082019050818103600083015261248a8161244e565b905091905056fea26469706673582212203e47327bcbeebbd607fdbf5040f54df80c9cc62988248e3ea66fb2df8f71fabd64736f6c634300080d0033",
  "immutableReferences": {},
  "source": "// SPDX-License-Identifier: MIT\npragma solidity ^0.8.0;\n\ncontract CertificateManagement {\n    struct CertificateCreation {\n        uint256 id;\n        address carrier;\n        address recipient;  // Main owner\n        mapping(address => bool) nominees;  // Updated to mapping\n        mapping(uint256 => Change) changes; // Map change ID to Change struct\n        uint256 changesCount; // Counter for tracking changes\n        string data;\n        bool isFinalized;\n        mapping(address => bool) approvals;\n        uint256[] collaboratorIds; // List of collaborator IDs for this certificate\n        uint256 manufacturingDate;\n        uint256 expiryDate;\n    }\n\n    struct Collaborator {\n        bool hasViewAccess;\n        bool hasOwnership;\n    }\n\n    struct Change {\n        uint256 changeId;\n        address initiator;\n        string updatedData;\n        mapping(address => bool) approvals;\n        bool isApproved;\n    }\n\n    mapping(uint256 => CertificateCreation) public certificates;\n    mapping(uint256 => mapping(address => Collaborator)) public collaborators;\n\n    uint256 public nextCertificateId;\n    uint256 public tempCount = 0;\n\n    // Function to create a new certificate\n    function createCertificate(\n        address _recipient,\n        string memory _data,\n        uint256 _manufacturingDate,\n        uint256 _expiryDate\n    ) public payable {\n        uint256 newId = nextCertificateId;\n        CertificateCreation storage newCertificate = certificates[newId];\n        newCertificate.id = newId;\n        newCertificate.carrier = msg.sender;\n        newCertificate.recipient = _recipient;\n        newCertificate.data = _data;\n        newCertificate.isFinalized = false;\n        newCertificate.collaboratorIds.push(newId); // Add the carrier as the first collaborator\n        collaborators[newId][msg.sender].hasOwnership = true;\n        newCertificate.manufacturingDate = _manufacturingDate;\n        newCertificate.expiryDate = _expiryDate;\n        nextCertificateId++;\n    }\n\n    // Function to request changes to a certificate\n    function requestChanges(uint256 _id, string memory _updatedData) public {\n        require(_id < nextCertificateId, \"Certificate does not exist\");\n        CertificateCreation storage cert = certificates[_id];\n        require(cert.carrier != msg.sender, \"Only non-carriers can request changes\");\n\n      \n\n        cert.changesCount++;\n\n        // Once all parties sign off, update the certificate\n        // For simplicity, let's assume all parties approved the changes\n        cert.data = _updatedData;\n        cert.isFinalized = true;\n    }\n\n    // Function to approve changes to a certificate\n    function approveChanges(uint256 _id, uint256 _changeId) public {\n        require(_id < nextCertificateId, \"Certificate does not exist\");\n        CertificateCreation storage cert = certificates[_id];\n        require(cert.carrier == msg.sender || collaborators[_id][msg.sender].hasOwnership, \"Only the carrier or collaborator with ownership can approve changes\");\n\n        // Ensure the change ID is valid\n        require(_changeId < cert.changesCount, \"Invalid change ID\");\n\n        // Approve the change\n        cert.changes[_changeId].approvals[msg.sender] = true;\n        cert.changes[_changeId].isApproved = true;\n    }\n\n    // Function to transfer ownership to another address\n    function transferOwnership(uint256 _id, address _newOwner) public {\n        require(_id < nextCertificateId, \"Certificate does not exist\");\n        CertificateCreation storage cert = certificates[_id];\n        require(msg.sender == cert.carrier, \"Only the current owner can transfer ownership\");\n\n        // Remove the current owner as the carrier and add the new owner\n        cert.carrier = _newOwner;\n\n        // Transfer ownership in collaborators mapping\n        collaborators[_id][_newOwner] = collaborators[_id][msg.sender];\n        delete collaborators[_id][msg.sender];\n    }\n\n    // Function to add a collaborator with view access\n    function addCollaborator(uint256 _id, address _collaborator) public {\n        require(_id < nextCertificateId, \"Certificate does not exist\");\n        CertificateCreation storage cert = certificates[_id];\n        require(msg.sender == cert.carrier || collaborators[_id][msg.sender].hasOwnership, \"Only the carrier or collaborator with ownership can add collaborators\");\n\n        // Add the collaborator to the collaborator mapping with view access\n        collaborators[_id][_collaborator].hasViewAccess = true;\n        // Add the collaborator ID to the certificate's collaboratorIds array\n        cert.collaboratorIds.push(_id);\n    }\n\n    // Function to remove a collaborator\n    function removeCollaborator(uint256 _id, address _collaborator) public {\n        require(_id < nextCertificateId, \"Certificate does not exist\");\n        CertificateCreation storage cert = certificates[_id];\n        require(msg.sender == cert.carrier || collaborators[_id][msg.sender].hasOwnership, \"Only the carrier or collaborator with ownership can remove collaborators\");\n\n        // Remove the collaborator from the collaborator mapping\n        delete collaborators[_id][_collaborator];\n        // Remove the collaborator ID from the certificate's collaboratorIds array\n        for (uint256 i = 0; i < cert.collaboratorIds.length; i++) {\n            if (cert.collaboratorIds[i] == _id) {\n                cert.collaboratorIds[i] = cert.collaboratorIds[cert.collaboratorIds.length - 1];\n                cert.collaboratorIds.pop();\n                break;\n            }\n        }\n    }\n\n   // Function to add a nominee\n    function addNominee(uint256 _id, address _nominee) public {\n        require(_id < nextCertificateId, \"Certificate does not exist\");\n        CertificateCreation storage cert = certificates[_id];\n        require(cert.recipient == msg.sender, \"Only the main owner can add nominees\");\n\n        // Add the nominee to the nominees mapping\n        cert.nominees[_nominee] = true;\n    }\n\n    // Function to remove a nominee\n    function removeNominee(uint256 _id, address _nominee) public {\n        require(_id < nextCertificateId, \"Certificate does not exist\");\n        CertificateCreation storage cert = certificates[_id];\n        require(cert.recipient == msg.sender, \"Only the main owner can remove nominees\");\n\n        // Remove the nominee from the nominees mapping\n        delete cert.nominees[_nominee];\n    }\n\n    // Function to retrieve certificate details\n    function getCertificate(uint256 _id) public view returns (address, string memory, bool) {\n        require(_id < nextCertificateId, \"Certificate does not exist\");\n        CertificateCreation storage cert = certificates[_id];\n        return (cert.carrier, cert.data, cert.isFinalized);\n    }\n\n    // Function to retrieve collaborator details\n    function getCollaboratorDetails(uint256 _id, address _collaborator) public view returns (bool, bool) {\n        require(_id < nextCertificateId, \"Certificate does not exist\");\n        return (collaborators[_id][_collaborator].hasViewAccess, collaborators[_id][_collaborator].hasOwnership);\n    }\n\n  // Function to check if an address is a nominee for a certificate\nfunction isNominee(uint256 _id, address _address) public view returns (bool) {\n    require(_id < nextCertificateId, \"Certificate does not exist\");\n    return certificates[_id].nominees[_address];\n}\n\nfunction getTempCount() public view returns(uint256){\n    return tempCount;\n}\n\nfunction setTempCount() public payable{\n    tempCount = tempCount+1;\n}\n}",
  "sourcePath": "/home/kaustubh/personal/temp/CertiTechd/contracts/CertificateManagement.sol",
  "compiler": {
    "name": "solc",
    "version": "0.8.13+commit.abaa5c0e.Emscripten.clang"
  },
  "schemaVersion": "3.4.16",
  "updatedAt": "2023-12-24T14:32:53.747Z",
  "networkType": "ethereum",
  "devdoc": {
    "kind": "dev",
    "methods": {},
    "version": 1
  },
  "userdoc": {
    "kind": "user",
    "methods": {},
    "version": 1
  }
}